:1000000077C091C090C0D7C28EC08DC08CC08BC04D
:100010008AC0ABC288C087C086C085C084C083C088
:1000200082C081C080C07FC07EC07DC07CC07BC0DC
:100030007AC079C099C7BCC7F3C724C832C857C8AB
:1000400070C80F435D5D5D5D475D5D5D5D4B5D5DF2
:100050005D5D0F23051927031E23031E23061B279F
:10006000011923021E0F23053427033123033123F3
:10007000063427013423023136230534230634277E
:1000800003312701342303312302310023380420B4
:100090003804213804273423053127053124063854
:1000A000435D50505047505050504B5050505008A6
:1000B0002703156B5D5D5D5D0627033220051D0678
:1000C00020053227031D04A022031E0AA1220331AA
:1000D00020051D27031D1824071D24061524061DB1
:1000E00024051527011D27011527021D27021500CC
:1000F00011241FBECFEFD4E0DEBFCDBF11E0A0E0E2
:10010000B1E0ECEFF9E102C005900D92A631B10724
:10011000D9F721E0A6E1B1E001C01D92A836B207EF
:10012000E1F7A6DB69CC6CCF40E050E00CC00000EA
:100130002F5F3F4F02C020E030E0203263E03607FF
:10014000B0F34F5F5F4F48175907A8F3089584B184
:100150008C6284B984B18F7E84B985B1806185B9A0
:100160008CB580618CBD8CB58D608CBD8CB5806488
:100170008CBD08958EBD0DB407FEFDCF1C99FECF3A
:100180000895CF93DF93D62FC42FF4DF8D2FF2DFA6
:100190008C2FF0DFDF91CF9108951F93CF93DF93E2
:1001A000162FD42FC22FE6DF812FE4DF8D2FE2DF61
:1001B0008C2FE0DFDF91CF911F9108950F931F9354
:1001C000CF93DF93162FD42FC22FD4DF812FD2DF0E
:1001D0008D2FD0DF8C2FCEDF802FCCDFDF91CF9122
:1001E0001F910F9108958FEF9FE390938700809365
:1001F0008600109289001092880010928B00109255
:100200008A00E0E8F0E08081806A808380818260FB
:100210008083E1E8F0E08081886180838081816073
:10022000808308958AB1806B8AB984B18E7F84B946
:1002300084B1826084B984B1846084B987B18860F4
:1002400087B98AB18D7F8AB987B18F7D87B987B128
:100250008F7E87B98AB18E7F8AB98AB1877F8AB942
:100260008AB18B7F8AB987B18D7F87B987B18E7F3D
:1002700087B987B18B7F87B98AB180648AB985B124
:10028000816085B988B1826088B98BB181608BB992
:100290008BB182608BB988B1886088B988B180627F
:1002A00088B988B1806188B98BB188608BB98BB10E
:1002B00084608BB988B1816088B988B1846088B95D
:1002C0000895FF920F931F93CF93DF93182FFB0195
:1002D000833411F0833669F49F01ADECBCEC30DB64
:1002E000FC01F695E795F695E795F695E79541E0DB
:1002F00001C040E09F0136952795369527953695A4
:100300002795A5ECB0E21CDB929582958F7089272A
:100310009F708927805B082F411102C01B3419F49C
:10032000803509F40DE59F0136952795369527957B
:1003300036952795A5ECB0E203DBAC0152954295CA
:100340004F7045275F70452728EE33E0429FC0017C
:10035000439F900D529F900D1124AF01481B590BE4
:10036000EA01D695C795D695C7959E01ABE7B4E14E
:10037000E7DAFC01F695E7950F2EF0E5FF2EF02D5C
:10038000FE0E24E62E9FC0012F9F900D1124FA012E
:10039000E81BF90B9F01ADECBCECD2DAEC01D69571
:1003A000C795D695C795D695C7954C2F405BCE017E
:1003B000880F991FCC0FDD1FCC0FDD1FCC0FDD1F69
:1003C000C80FD91FEC1BFD0B60E56E0F2F2D812F81
:1003D000F5DEDF91CF911F910F91FF9008950F935C
:1003E000382FCB0199232CF49195819591090FE534
:1003F00001C00DE568EE73E04CDAFC0164E670E0E4
:1004000048DA20E5260F203509F42DE5CF0164E612
:1004100070E03FDAFC016AE070E03BDA40E5460F4D
:10042000403509F44DE5CF016AE070E032DA60E56D
:10043000680F832FC3DE0F9108950F939DEC899F62
:10044000912D112496959695969500E5090F990F93
:10045000292F220F220F920F891B20E5280F4DE52F
:100460006DE58BE6ABDE0F9108950F931F93AC0102
:100470009C013695279536952795ABE7B4E160DA70
:10048000FC01F695E7959A013695279536952795BF
:1004900036952795A5ECB0E253DA8C0112950295BA
:1004A0000F7001271F7001279F01ADECBCEC48DAEB
:1004B0009695879596958795969587959C01220F99
:1004C000331F880F991F880F991F880F991F820F5C
:1004D000931F9F01281B390BC901005B20E5280FE2
:1004E0004DE56DE58BE66ADE1F910F910895E8E614
:1004F000F0E0808181608083EBE6F0E080818160C4
:10050000808378940895E1EBF0E0808183608083BC
:10051000089585B5836085BD84B5836884BD8FE704
:1005200087BD08951092B4008AE08093B200809154
:100530002B01833021F481E080932C0102C01092C2
:100540002C01E0E7F0E080818160808387B38160E7
:1005500087BB8BB381608BBBE1EBF0E08081836074
:10056000808381E08093290108951F920F920FB636
:100570000F9211248F93EF93FF93E4EBF0E08081CF
:100580008F5F80838081803371F480912C01811191
:100590000AC0E1EBF0E080818C7F8083109229011A
:1005A0008BB1806B8BB9FF91EF918F910F900FBE44
:1005B0000F901F9018951F920F920FB60F92112453
:1005C0008F93EF93FF9318990AC0E1EBF0E08081DD
:1005D0008C7F8083109229018BB1806B8BB9FF9146
:1005E000EF918F910F900FBE0F901F901895209153
:1005F0001A0130911B01A0911801B09119019AD9EB
:1006000020E137E240E050E057D9B9018BE459DEF0
:10061000089520912801213039F0609104017091F2
:1006200005016817790768F060E070E083E449DE4F
:1006300060E070E08BE445DE10921B0110921A011D
:100640000895A0E0B0E09C01AD01261B370B4109E5
:100650005109A0E2BEE486D920910601309107013C
:10066000A90156954795640F751F811D911D40E0A6
:1006700050E044D930931B0120931A01B90183E45F
:1006800020DEB5DF089520912801213039F06091F6
:100690000001709101016817790768F060E070E06F
:1006A00087E40FDE60E070E08BE40BDE109219014E
:1006B000109218010895A0E0B0E09C01AD01261B46
:1006C000370B41095109A0EBB4E04CD9209102014C
:1006D00030910301A90156954795640F751F811D3F
:1006E000911D40E050E00AD9309319012093180180
:1006F000B90187E4E6DD7BDF0895CF92DF92EF92C8
:10070000FF92DC0126EF38E043E050E02BD96B018B
:100710007C0120EAC21A25E0D20A22E2E20A27E49A
:10072000F20A6701EE24FF2480911F01811106C0A7
:1007300080911D01811102C0C60197DE9601369598
:10074000279536952795ABE7B4E1FAD87C01F69466
:10075000E7948BE4E816F10448F021E343E062E219
:1007600081EA1BDD81E08093280121C026E4E216A6
:10077000F10438F044E361E082E203DD8FEF87BDEE
:1007800016C085E4E816F10490F441E161E082E2EC
:10079000F8DC24E2E216F10418F484E187BD07C016
:1007A0008FE1E81A80ECF80AEE0CEE0CE7BCFF9043
:1007B000EF90DF90CF900895DC0126EF38E043E022
:1007C00050E0D0D8DC01CB01805A9540A242B7441A
:1007D000CD01AA27BB2720911F01211105C020911F
:1007E0001D01211101C041DE08954B9902C080E036
:1007F00001C083E04A9B02C091E0892780932F01CA
:1008000010922E0108954B9902C090E001C093E030
:100810004A9B02C081E0982780912F01891B80FFAD
:1008200009C090932F01827090912E01890F815001
:1008300080932E01089580912E01982F93709093AC
:100840002E01859585950895FF920F931F93CF9361
:10085000DF93F82E10E000E0C0E0D0E033C08BB1B1
:100860008F7480698BB95EDE809129018111FCCF84
:100870008BB18F74F11002C090E001C090E1892B20
:100880008BB950DE809129018111FCCF8BB18F741F
:1008900080688BB947DE809129018111FCCF80915E
:1008A000B40090E0982F88272091B200822B9C0101
:1008B000C217D30721F40F5F053011F406C000E022
:1008C0001F5FEC01123358F201C0E901CE01DF9144
:1008D000CF911F910F91FF900895ADDF811103C05B
:1008E00010922D01089591E090932D0190911E0199
:1008F000890F80931E018F3018F08FE080931E01C6
:1009000080911E019ADD10921C0183E080931001FA
:100910000895CF93DF93EC0160910E0170910F0168
:10092000CB01A0E0B0E0DC0199278827BC01CD0114
:10093000605F784D8F4F9F4F20E23EE440E050E0F3
:10094000BBD7DE0119D820910C0130910D01820F27
:10095000931F9093890080938800C8398AE3D80751
:100960001CF081EB07DC06C0C53A88E3D80714F415
:1009700080EB00DCBE0183E4A4DCDF91CF9108951D
:10098000CF93DF93EC0160910A0170910B01CB01D1
:10099000A0E0B0E0DC0199278827BC01CD01685AAE
:1009A0007D4F8F4F9F4F20EB34E040E050E084D7E5
:1009B000DE01E2D72091080130910901820F931FD7
:1009C00090938B0080938A00BE0187E47ADCDF91EC
:1009D000CF91089580911F01811104C080911D0164
:1009E000882311F07ADF089526DF811103C0109269
:1009F0002D01089591E090932D0190912301911183
:100A000030C04091130150911401682F640390018C
:100A1000659F300D11248091260190912701820F4E
:100A2000931F909327018093260199232CF4109211
:100A300027011092260109C08033954734F080E3E6
:100A400095E790932701809326018091260190914C
:100A500027015FDF8EE18093220181E080932101F5
:100A60000895913079F54091110150911201682F4C
:100A700064039001659F300D1124809124019091B1
:100A80002501820F931F90932501809324019923C0
:100A90002CF4109225011092240109C0883B9B4040
:100AA00034F088EB9BE090932501809324018091A2
:100AB00024019091250164DF8EE18093220181E081
:100AC000809320010895CF93DF93809129018111B4
:100AD000B7C080912B01811109C081E080932B0167
:100AE0008BB18F7480698BB91DDDAAC0813021F56F
:100AF00082E080932B0180912A01811103C08BB188
:100B00008F748BB980912A01813021F48BB18F745D
:100B100080618BB980912A01823021F48BB18F746E
:100B200080628BB980912A01833021F48BB18F745C
:100B300080638BB9F7DC84C0823049F483E0809312
:100B40002B018BB18F7480688BB9ECDC79C083305A
:100B500009F076C08091B40090E0982F882720910A
:100B6000B200EC01C22B10922C0180912A0181115C
:100B70000AC080912D01811106C08091220181114E
:100B800002C0CE0146DD80912A01813051F480916E
:100B90002D01811106C080912201811102C0CE0178
:100BA00072DD80912A01823011F4CE0105DE809140
:100BB0002A01833011F4CE01A0DD909117019F5FCF
:100BC0009093170189E2989F812D1124869586952F
:100BD0008695392F22E3829F30191124311104C0E8
:100BE00082E080932A0119C089E2989F812D112407
:100BF00086958695392F29E1829F3019112431116C
:100C000004C083E080932A0108C090FD03C01092C5
:100C10002A0103C081E080932A0110922B011092D7
:100C20002901D8DE80912201882319F08150809318
:100C3000220180911001882319F0815080931001C6
:100C4000DF91CF910895BC0180E090E0B4D6089583
:100C500080E090E0ABD60895BC0182E090E0ABD696
:100C6000089580912201811111C080912101882372
:100C700069F08091260190912701E5DF60912601BE
:100C80007091270183E61DDB1092210180912201E2
:100C9000811111C080912001882369F08091240185
:100CA00090912501D9DF609124017091250187E69B
:100CB00008DB10922001089582E090E077D6089535
:100CC000877090E8699FB00111247727682B7C6CAE
:100CD00088E090E070D608950F931F93CF93DF9331
:100CE0008C01EB0188E090E061D69C012227211560
:100CF0003C4C49F4982F9770F801908387FB882724
:100D000080F9888305C087E0F801808381E08883CB
:100D1000DF91CF911F910F9108958EE090E046D61C
:100D200021E0813A9C4009F020E0822F089561EA99
:100D30007CE08EE090E03FD6089560910C017091C8
:100D40000D0180E190E037D660910E0170910F01A6
:100D500082E190E030D6609108017091090184E150
:100D600090E029D660910A0170910B0186E190E034
:100D700022D6609104017091050188E190E01BD6B4
:100D800060910601709107018AE190E014D66091AC
:100D90000001709101018CE190E00DD6609102019B
:100DA000709103018EE190E006D6C1DF089580E1E5
:100DB00090E0FCD590930D0180930C0182E190E0CE
:100DC000F5D590930F0180930E0184E190E0EED56C
:100DD000909309018093080186E190E0E7D5909314
:100DE0000B0180930A0188E190E0E0D59093050122
:100DF000809304018AE190E0D9D590930701809314
:100E000006018CE190E0D2D590930101809300011E
:100E10008EE190E0CBD59093030180930201089579
:100E20000F931F93CF93DF938A01C82FD0E02896AA
:100E3000CC0FDD1FCC0FDD1FCE01BDD5B801CE011B
:100E40000296B9D5DF91CF911F910F910895EF923E
:100E5000FF920F931F93CF93DF937B018A01C82FDB
:100E6000D0E02896CC0FDD1FCC0FDD1FCE019ED524
:100E7000F70191838083CE01029698D5F801918382
:100E80008083DF91CF911F910F91FF90EF90089594
:100E900080912301811125C080911301909114014B
:100EA0008A30910529F448E365E084E26AD908951F
:100EB0008436910529F442E366E084E262D908951C
:100EC000883E23E0920729F448E366E084E259D99A
:100ED00008958031974241F542E367E084E251D9B9
:100EE000089580911101909112018130910529F4AA
:100EF00048E362E087E245D908958A30910529F4F4
:100F000042E362E087E23DD908958436910529F4F1
:100F100048E361E087E235D90895883E934021F4A3
:100F200042E361E087E22DD908950F931F93CF9399
:100F3000DF938C01FC01D491C1E006C0F801EC0FF5
:100F4000F11D849117D9CF5FDC17C0F7DF91CF91E6
:100F50001F910F91089590E08730910508F020C10E
:100F6000FC01E65EFF4F09948091280181110DC0BC
:100F70008BEC90E0DADF80E090E0CBDC80E090E08A
:100F8000FFDC81E0809328010895809126019091F3
:100F90002701BFDC8091240190912501F1DC86ECD2
:100FA00090E0C3DF8FEB90E0C0DF1092280108953E
:100FB00080912301811118C0809113019091140137
:100FC000803127E2920738F59C01220F331F880FEA
:100FD000991F880F991F880F991F820F931F909355
:100FE00014018093130117C0809111019091120197
:100FF000883E23E0920778F49C01220F331F880F6C
:10100000991F880F991F880F991F820F931F909324
:1010100012018093110186ED90E087DF39DF08959A
:1010200080912301811115C0209113013091140189
:101030002B30310510F1ADECBCEC82D49695879540
:1010400096958795969587959093140180931301B3
:1010500014C020911101309112012230310568F045
:10106000ADECBCEC6DD49695879596958795969545
:101070008795909312018093110186ED90E055DFE2
:1010800007DF089586ED90E050DF80912301811104
:1010900004C081E08093230102C010922301F8DE96
:1010A000089580911D0181110EC048E363E087E23D
:1010B00068D880911E01C1D981E080931D0185E02F
:1010C0008093100111C08FEA90E02FDF609126011C
:1010D0007091270183E6F5D8609124017091250174
:1010E00087E6EFD810921D0110921F01089580919C
:1010F0001F0181110EC048E363E087E242D880916E
:101100001E019BD981E080931F0185E0809310012F
:1011100005C08FEA90E009DF10921F0110921D01B7
:10112000089580911D01882329F144E251E066E28F
:1011300071E080911E018BDE809126019091270144
:10114000E8DB80912401909125011ADC6091260151
:101150007091270183E6B5D8609124017091250133
:1011600087E6AFD81092220181E08093210180931D
:1011700020010FC080911F01882359F04091240164
:1011800050912501609126017091270180911E01E7
:1011900047DE8FEA90E0C9DE10921F0110921D0118
:1011A00008950F93CF93DF9300D000D0CDB7DEB773
:1011B00080911F01811105C080911D01882309F4D0
:1011C0003FC08091100181113BC080911C01882398
:1011D000C9F080911E0131D980911D01882331F120
:1011E000AE014D5F5F4FBE016F5F7F4F80911E016B
:1011F0002EDE69817A8183E664D86B817C8187E603
:1012000060D814C00DE52DE54DE56DE58BE6D6D72C
:1012100080911D01882351F02DE54DE56DE583E6B4
:10122000CDD72DE54DE56DE587E6C8D781E09091F6
:101230001C01911180E080931C0183E080931001D8
:101240000F900F900F900F90DF91CF910F91089515
:1012500090E0FC01EE0FFF1FEE0FFF1FE45BFE4F5F
:101260004081518162817381452B462B472B51F17F
:10127000FC01EE0FFF1FEE0FFF1FE05DFE4F4081F0
:101280005181628173814F5F5F4F6F4F7F4F40830A
:10129000518362837383453651056105710590F072
:1012A000880F991F880F991FFC01E05DFE4F108287
:1012B000118212821382FC01E45BFE4F10821182C4
:1012C000128213820895CF93C9B1C1708091160123
:1012D000C81779F080912801813059F0C13021F48C
:1012E00088EB90E022DE03C08FEB90E01EDEC0931F
:1012F0001601CF91089586ED90E017DE82E590E02B
:1013000014DE82E490E011DE44E366E083E239D744
:1013100066EC77E083E4D5D766E070E087E4D1D768
:101320000895CF93DF9300D0CDB7DEB788EE93E07A
:10133000FBD680EF1FD7BE016E5F7F4FCE010196B7
:10134000CBDC8A81882311F081EC01C080EC12D7BC
:10135000898188520FD784E690E0E6D680EB0AD7E1
:1013600081EA08D784E690E0DFD6C5DF88EB9BE012
:10137000DBD688E790E0D9DD8BEC90E0D6DD0F90EE
:101380000F90DF91CF9108951092230161DC90932B
:10139000270180932601BC0183E693D78DDC9093CF
:1013A000250180932401BC0187E68BD781E08093DF
:1013B000280180E090E0ADDA80E090E0E1DA68DDDD
:1013C0000895EF92FF920F931F93CF93DF93182FFF
:1013D000811105C0E0908800F090890004C0E09081
:1013E0008A00F0908B00C0E0D0E00DDA24DAC80F5C
:1013F000D11D87FDDA95111108C0CE018E0D9F1DFC
:10140000909389008093880007C0CE018E0D9F1DA8
:1014100090938B0080938A00BE0187E4E0D73499D3
:10142000E4CF0DE52DE54DE56DE587E4C7D68CE20B
:1014300091E07AD6BE0187E4D2D788EE93E074D6E5
:10144000CE018E0D9F1DDF91CF911F910F91FF90C7
:10145000EF90089541E363E082E293D688EC90E058
:1014600063D64EE163E082E28CD688EC90E05CD6F5
:101470003399F0CF86EC90E058DD0895CF92DF925B
:10148000EF92FF920F931F93CF93DF93CDB7DEB709
:1014900066970FB6F894DEBF0FBECDBF3EDC81115C
:1014A00086DC3BDC882321F086B1857009F0FFC023
:1014B00080EF60D648E361E284E063D641E365E013
:1014C00087E25FD684E690E05BDA64E670E087E668
:1014D000F8D688E893E19C8B8B8B88EA91E69E8B0B
:1014E0008D8B8CE291E0988B8F878CED95E09A8BB9
:1014F000898B1A8219821C821B8210E03CC08BEC03
:1015000090E013DD44E365E083E23BD6E12EF12C6D
:10151000EE0CFF1C81E090E08C0F9D1FE80EF91E81
:10152000F701C288D388C601F4D961E5610F0CE5E3
:101530002AE54BE583E442D6B60183E6C2D60DE543
:101540002DE54DE56DE587E439D684DF8FEB90E03E
:10155000ECDC48E362E087E214D688EC90E0E4D566
:1015600080E02FDFF7019183808380E06DD9F70160
:10157000938782871F5F123010F28B819C812981B3
:101580003A81821B930B90930F0180930E019695E5
:10159000879596958795281B390B30930D012093DD
:1015A0000C018D859E852B853C85821B930B90932A
:1015B0000701809306019695879596958795281B38
:1015C000390B309305012093040180EE9EE2A1D9EE
:1015D00080EBD0D560EE7EE283E673D610E03CC0AF
:1015E0008BEC90E0A2DC49E165E083E2CAD541E3FF
:1015F00063E087E2C6D5E12EF12CEE0CFF1C81E002
:1016000090E08C0F9D1FE80EF91EF701C684D78469
:10161000C601B6D963E5610F0CE52AE54BE583E425
:10162000CDD5B60187E64DD60DE52DE54DE56DE549
:1016300087E4C4D50FDF88EB90E077DC88EC90E09E
:1016400073D581E0BEDEF7019183808381E0FCD811
:10165000F701978386831F5F123010F28B819C8184
:1016600029813A81821B930B90930B0180930A018D
:101670009695879596958795281B390B3093090188
:101680002093080189859A852F813885821B930BC9
:10169000909303018093020196958795969587957F
:1016A000281B390B309301012093000146DB88E7AA
:1016B00090E03BDC8BEC90E038DC66960FB6F8945B
:1016C000DEBF0FBECDBFDF91CF911F910F91FF9075
:1016D000EF90DF90CF9008950F9361E5680F0CE5D0
:1016E00020E54DE587E46AD50F910895CF93DF9308
:1016F00000D0CDB7DEB782E590E017DC86ED90E054
:1017000014DC82E490E011DC48E362E087E239D542
:101710008981E2DFBE016E5F7F4FCE010196DCDA88
:101720008981DADF70D887D8082E000C990B18163B
:10173000190664F42981273048F481E0820F8983F7
:1017400089ED820F17D58981C7DF0CC0992354F426
:101750008981882339F09FEF980F998389520AD5A0
:101760008981BADF329904C081EC04D581E08A8393
:10177000309903C080ECFED41A823499D3CF6A81A9
:1017800089819EDA85E690E0D0DB86ED90E0CDDBC6
:101790007FDB0F900F90DF91CF9108951F93CF9330
:1017A000DF93182FC82FD0E0FE01EE0FFF1FEE0FC2
:1017B000FF1FE45BFE4F80819181A281B38101967E
:1017C000A11DB11D80839183A283B383843F914087
:1017D000A105B10511F4812FBEDB133081F4CC0FCC
:1017E000DD1FCC0FDD1FC45BDE4F88819981AA818C
:1017F000BB8180369A4EA105B10509F477DFDF91F0
:10180000CF911F910895CF93C6B1C3FD03C080E06F
:10181000C5DF02C080E01CDDC0FD03C081E0BEDF8B
:1018200002C081E015DDC2FD03C082E0B7DF02C067
:1018300082E00EDDC1FD03C083E0B0DF02C083E0C3
:1018400007DD499903C084E0A9DF02C084E000DD20
:10185000C5FD03C085E0A2DF02C085E0F9DCC4FD60
:1018600003C086E09BDF02C086E0F2DCCF910895E2
:101870006ED4D8D44ED6B7D446D6B7D752DD37D6E5
:10188000FDDD82DD20D9EDD91EDDBDD7BCDF89DCD1
:10189000F9CF97FB072E16F4009406D077FD08D0F9
:1018A00071D007FC05D03EF4909581959F4F089527
:1018B000709561957F4F0895A1E21A2EAA1BBB1B5C
:1018C000FD010DC0AA1FBB1FEE1FFF1FA217B3070C
:1018D000E407F50720F0A21BB30BE40BF50B661F22
:1018E000771F881F991F1A9469F7609570958095E6
:1018F00090959B01AC01BD01CF010895052E97FB8A
:1019000016F400940FD057FD05D0D6DF07FC02D0A7
:1019100046F408C050954095309521953F4F4F4F64
:101920005F4F089590958095709561957F4F8F4F8B
:101930009F4F089505D0332312F48A1B9B0B0DC0D3
:10194000A29FB001B39FC001A39F01D0B29F700DB1
:10195000811D1124911D0895F3DFB7FF0895821BA7
:10196000930B0895EDDFA59F900DB49F900DA49F5C
:10197000800D911D11240895B7FFF4CFF3DF821B72
:10198000930B0895AA1BBB1B51E107C0AA1FBB1FE5
:10199000A617B70710F0A61BB70B881F991F5A95FB
:1019A000A9F780959095BC01CD010895A8E1B0E01C
:1019B00042E050E005C012D0272F11C0DC01CB015E
:1019C000FC01F999FECF06C0F2BDE1BDF89A31964F
:1019D00000B40D9241505040B8F70895262FF99960
:1019E000FECF1FBA92BD81BD20BD0FB6F894FA9A02
:0C19F000F99A0FBE01960895F894FFCFFD
:1019FC000B018013A300F91A76007E167B002627B4
:061A0C00056400E8030080
:00000001FF
