:1000000077C091C090C0D7C28EC08DC08CC08BC04D
:100010008AC0ABC288C087C086C085C084C083C088
:1000200082C081C080C07FC07EC07DC07CC07BC0DC
:100030007AC079C0F7C61AC751C782C790C7B5C77B
:10004000CEC70F435D5D5D5D475D5D5D5D4B5D5D95
:100050005D5D0F23051927031E23031E23061B279F
:10006000011923021E0F23053427033123033123F3
:10007000063427013423023136230534230634277E
:1000800003312701342303312302310023380420B4
:100090003804213804273423053127053124063854
:1000A000435D50505047505050504B5050505008A6
:1000B0002703156B5D5D5D5D0627033220051D0678
:1000C00020053227031D04A022031E0AA1220331AA
:1000D00020051D27031D1824071D24061524061DB1
:1000E00024051527011D27011527021D27021500CC
:1000F00011241FBECFEFD4E0DEBFCDBF11E0A0E0E2
:10010000B1E0E2E2F8E102C005900D92AE30B10735
:10011000D9F721E0AEE0B1E001C01D92A036B207F0
:10012000E1F7C6DA7CCB6CCF40E050E00CC00000B9
:100130002F5F3F4F02C020E030E0203263E03607FF
:10014000B0F34F5F5F4F48175907A8F3089584B184
:100150008C6284B984B18F7E84B985B1806185B9A0
:100160008CB580618CBD8CB58D608CBD8CB5806488
:100170008CBD08958EBD0DB407FEFDCF1C99FECF3A
:100180000895CF93DF93D62FC42FF4DF8D2FF2DFA6
:100190008C2FF0DFDF91CF9108951F93CF93DF93E2
:1001A000162FD42FC22FE6DF812FE4DF8D2FE2DF61
:1001B0008C2FE0DFDF91CF911F9108950F931F9354
:1001C000CF93DF93162FD42FC22FD4DF812FD2DF0E
:1001D0008D2FD0DF8C2FCEDF802FCCDFDF91CF9122
:1001E0001F910F9108958FEF9FE390938700809365
:1001F0008600109289001092880010928B00109255
:100200008A00E0E8F0E08081806A808380818260FB
:100210008083E1E8F0E08081886180838081816073
:10022000808308958AB1806B8AB984B18E7F84B946
:1002300084B1826084B984B1846084B987B18860F4
:1002400087B98AB18D7F8AB987B18F7D87B987B128
:100250008F7E87B98AB18E7F8AB98AB1877F8AB942
:100260008AB18B7F8AB987B18D7F87B987B18E7F3D
:1002700087B987B18B7F87B98AB180648AB985B124
:10028000816085B988B1826088B98BB181608BB992
:100290008BB182608BB988B1886088B988B180627F
:1002A00088B988B1806188B98BB188608BB98BB10E
:1002B00084608BB988B1816088B988B1846088B95D
:1002C0000895FF920F931F93CF93DF93182FFB0195
:1002D000833411F0833669F49F01ADECBCEC43DA52
:1002E000FC01F695E795F695E795F695E79541E0DB
:1002F00001C040E09F0136952795369527953695A4
:100300002795A5ECB0E22FDA929582958F70892718
:100310009F708927805B082F411102C01B3419F49C
:10032000803509F40DE59F0136952795369527957B
:1003300036952795A5ECB0E216DAAC0152954295B8
:100340004F7045275F70452728EE33E0429FC0017C
:10035000439F900D529F900D1124AF01481B590BE4
:10036000EA01D695C795D695C7959E01ABE7B4E14E
:10037000FAD9FC01F695E7950F2EF0E5FF2EF02D4A
:10038000FE0E24E62E9FC0012F9F900D1124FA012E
:10039000E81BF90B9F01ADECBCECE5D9EC01D6955F
:1003A000C795D695C795D695C7954C2F405BCE017E
:1003B000880F991FCC0FDD1FCC0FDD1FCC0FDD1F69
:1003C000C80FD91FEC1BFD0B60E56E0F2F2D812F81
:1003D000F5DEDF91CF911F910F91FF9008950F935C
:1003E000382FCB0199232CF49195819591090FE534
:1003F00001C00DE568EE73E07BD9FC0164E670E0B6
:1004000077D920E5260F203509F42DE5CF0164E6E4
:1004100070E06ED9FC016AE070E06AD940E5460FF1
:10042000403509F44DE5CF016AE070E061D960E53F
:10043000680F832FC3DE0F9108950F939DEC899F62
:10044000912D112496959695969500E5090F990F93
:10045000292F220F220F920F891B20E5280F4DE52F
:100460006DE58BE6ABDE0F9108950F931F93AC0102
:100470009C013695279536952795ABE7B4E173D95E
:10048000FC01F695E7959A013695279536952795BF
:1004900036952795A5ECB0E266D98C0112950295A8
:1004A0000F7001271F7001279F01ADECBCEC5BD9D9
:1004B0009695879596958795969587959C01220F99
:1004C000331F880F991F880F991F880F991F820F5C
:1004D000931F9F01281B390BC901005B20E5280FE2
:1004E0004DE56DE58BE66ADE1F910F910895E8E614
:1004F000F0E0808181608083EBE6F0E080818160C4
:10050000808378940895E1EBF0E0808183608083BC
:10051000089585B5836085BD84B5836884BD8FE704
:1005200087BD08951092B4008AE08093B200809154
:100530002301833021F481E08093240102C01092D2
:100540002401E0E7F0E080818160808387B38160EF
:1005500087BB8BB381608BBBE1EBF0E08081836074
:10056000808381E08093210108951F920F920FB63E
:100570000F9211248F93EF93FF93E4EBF0E08081CF
:100580008F5F80838081803371F480912401811199
:100590000AC0E1EBF0E080818C7F80838BB1806BBF
:1005A0008BB910922101FF91EF918F910F900FBEA7
:1005B0000F901F9018951F920F920FB60F92112453
:1005C0008F93EF93FF9318990AC0E1EBF0E08081DD
:1005D0008C7F80838BB1806B8BB910922101FF914E
:1005E000EF918F910F900FBE0F901F901895209153
:1005F000120130911301A0911001B0911101ADD8F9
:1006000020E137E240E050E086D8B9018BE459DEC2
:10061000089520912001213019F0843A910548F481
:1006200060E070E083E44DDE60E070E08BE449DE82
:100630000895A0E0B0E09C01AD01235A31094109C1
:1006400051096EE475EE82E090E043D8BC01992731
:1006500077FD9095892F709313016093120183E4C5
:1006600030DEC5DF089520912001213021F0853052
:1006700021E0920748F460E070E087E422DE109207
:1006800011011092100108959C01ADE6BDE36BD8F5
:10069000DC01CB01845B9246AE43B109BD018827E2
:1006A0009927709311016093100187E40ADE9FDFA0
:1006B0000895CF92DF92EF92FF92DC0126EF38E0AF
:1006C00043E050E062D86B017C0120EAC21A25E0C9
:1006D000D20A22E2E20A27E4F20A6701EE24FF24AA
:1006E00080911701811106C080911501811102C00E
:1006F000C601BBDE96013695279536952795ABE763
:10070000B4E131D87C01F694E7948BE4E816F10467
:1007100048F021E343E062E281EA3FDD81E080933B
:10072000200121C026E4E216F10438F044E361E040
:1007300082E227DD8FEF87BD16C085E4E816F1045D
:1007400090F441E161E082E21CDD24E2E216F10472
:1007500018F484E187BD07C08FE1E81A80ECF80A3D
:10076000EE0CEE0CE7BCFF90EF90DF90CF90089579
:10077000DC0126EF38E043E050E007D8DC01CB0194
:10078000805A9540A242B744CD01AA27BB272091A9
:100790001701211105C020911501211101C065DE4D
:1007A00008954B9902C080E001C083E04A9B02C0DB
:1007B00091E08927809327011092260108954B9993
:1007C00002C090E001C093E04A9B02C081E09827FC
:1007D00080912701891B80FF09C0909327018270B7
:1007E00090912601890F8150809326010895809170
:1007F0002601982F937090932601859585950895ED
:10080000F6DF811103C010922501089591E09093C5
:10081000250190911601890F809316018F3018F0F1
:100820008FE0809316018091160107DE109214016B
:1008300083E0809308010895CF93DF93EC016091EA
:10084000060170910701CB01A0E0B0E0DC0199271F
:100850008827BC01CD01605F784D8F4F9F4F20E20C
:100860003EE440E050E057D7DE0199D720910401E3
:1008700030910501820F931F909389008093880027
:10088000C8398AE3D8071CF081EB74DC06C0C53A8E
:1008900088E3D80714F480EB6DDCBE0183E411DD3E
:1008A000DF91CF910895CF93DF93EC016091020126
:1008B00070910301CB01A0E0B0E0DC01992788270B
:1008C000BC01CD01685A7D4F8F4F9F4F20EB34E024
:1008D00040E050E020D7DE0162D720910001309146
:1008E0000101820F931F90938B0080938A00BE01B9
:1008F00087E4E7DCDF91CF910895809117018111A2
:1009000004C080911501882311F07ADF08956FDF0C
:10091000811103C010922501089591E09093250163
:1009200090911B01911130C040910B0150910C012D
:10093000682F64039001659F300D112480911E0182
:1009400090911F01820F931F90931F0180931E01AE
:1009500099232CF410921F0110921E0109C08033BC
:10096000954734F080E395E790931F0180931E0133
:1009700080911E0190911F015FDF8EE180931A012B
:1009800081E0809319010895913079F54091090132
:1009900050910A01682F64039001659F300D112466
:1009A00080911C0190911D01820F931F90931D0156
:1009B00080931C0199232CF410921D0110921C01AC
:1009C00009C0883B9B4034F088EB9BE090931D016D
:1009D00080931C0180911C0190911D0164DF8EE1C8
:1009E00080931A0181E0809318010895CF93DF93DB
:1009F00080912101813009F4B9C0809123018111D6
:100A00000BC081E0809323018BB180698BB98BB1DE
:100A10008F7D8BB987DDAAC0813021F582E080937C
:100A2000230180912201811103C08BB18F748BB996
:100A300080912201813021F48BB18F7480618BB958
:100A400080912201823021F48BB18F7480628BB946
:100A500080912201833021F48BB18F7480638BB934
:100A600061DD84C0823049F483E0809323018BB13F
:100A70008F7480688BB956DD79C0833009F076C0F9
:100A80008091B40090E0982F88272091B200EC016B
:100A9000C22B109224018091220181110AC0809101
:100AA0002501811106C080911A01811102C0CE0179
:100AB000B0DD80912201813051F4809125018111B6
:100AC00006C080911A01811102C0CE01CCDD809157
:100AD0002201823011F4CE014BDE8091220183305D
:100AE00011F4CE01E6DD90910F019F5F90930F010D
:100AF00089E2989F812D1124869586958695392FB8
:100B000022E3829F30191124311104C082E08093C6
:100B1000220119C089E2989F812D1124869586951E
:100B2000392F29E1829F30191124311104C083E04B
:100B30008093220108C090FD03C01092220103C0DF
:100B400081E0809322011092230110922101D5DED1
:100B500080911A01882319F0815080931A018091A5
:100B60000801882319F0815080930801DF91CF910B
:100B70000895BC0180E090E031D6089580E090E0D7
:100B800028D60895BC0182E090E028D6089580918F
:100B90001A01811111C080911901882369F0809197
:100BA0001E0190911F01E5DF60911E0170911F01F0
:100BB00083E687DB1092190180911A01811111C01F
:100BC00080911801882369F080911C0190911D018A
:100BD000D9DF60911C0170911D0187E672DB1092D4
:100BE0001801089582E090E0F4D5089584E090E043
:100BF000F0D521E0813A9C4009F020E0822F089551
:100C000061EA7CE084E090E0E9D508956091040118
:100C10007091050186E090E0E1D560910601709148
:100C2000070188E090E0DAD5609100017091010140
:100C30008AE090E0D3D560910201709103018CE0CD
:100C400090E0CCD5DDDF089586E090E0C2D59093AA
:100C500005018093040188E090E0BBD590930701E3
:100C6000809306018AE090E0B4D5909301018093CF
:100C700000018CE090E0ADD59093030180930201D8
:100C80000895877090E8699FB00111247727682B39
:100C90007C6C8EE090E0A2D508950F931F93CF93C4
:100CA000DF938C01EB018EE090E093D59C0122272D
:100CB00021153C4C49F4982F9770F801908387FBDD
:100CC000882780F9888305C087E0F801808381E068
:100CD0008883DF91CF911F910F91089580911B011F
:100CE000811125C080910B0190910C018A309105F2
:100CF00029F448E365E084E244DA089584369105F6
:100D000029F442E366E084E23CDA0895883E23E079
:100D1000920729F448E366E084E233DA08958031EB
:100D2000974241F542E367E084E22BDA089580912F
:100D3000090190910A018130910529F448E362E0AC
:100D400087E21FDA08958A30910529F442E362E0D0
:100D500087E217DA08958436910529F448E361E0C3
:100D600087E20FDA0895883E934021F442E361E080
:100D700087E207DA08950F931F93CF93DF938C01D7
:100D8000FC01D491C1E006C0F801EC0FF11D849183
:100D9000F1D9CF5FDC17C0F7DF91CF911F910F9191
:100DA00008950F931F93CF93DF938A01C82FD0E04C
:100DB0002496CC0FDD1FCC0FDD1FCE010FD5B8015F
:100DC000CE0102960BD5DF91CF911F910F9108951F
:100DD000EF92FF920F931F93CF93DF937B018A01D2
:100DE000C82FD0E02496CC0FDD1FCC0FDD1FCE0125
:100DF000F0D4F70191838083CE010296EAD4F80102
:100E000091838083DF91CF911F910F91FF90EF909D
:100E1000089590E08730910508F020C1FC01E65E5E
:100E2000FF4F09948091200181110DC08BEC90E05F
:100E3000A2DF80E090E000DD80E090E034DD81E042
:100E400080932001089580911E0190911F01F4DC90
:100E500080911C0190911D0126DD86EC90E08BDFD6
:100E60008FEB90E088DF10922001089580911B01A4
:100E7000811118C080910B0190910C01803127E203
:100E8000920738F59C01220F331F880F991F880F96
:100E9000991F880F991F820F931F90930C018093C5
:100EA0000B0117C08091090190910A01883E23E04F
:100EB000920778F49C01220F331F880F991F880F27
:100EC000991F880F991F820F931F90930A01809397
:100ED000090186ED90E04FDF01DF089580911B014D
:100EE000811115C020910B0130910C012B3031057F
:100EF00010F1ADECBCEC37D4969587959695879517
:100F00009695879590930C0180930B0114C02091C6
:100F1000090130910A012230310568F0ADECBCECDA
:100F200022D49695879596958795969587959093D3
:100F30000A018093090186ED90E01DDFCFDE089560
:100F400086ED90E018DF80911B01811104C081E0E3
:100F500080931B0102C010921B01C0DE0895809196
:100F6000150181110EC048E363E087E20AD9809140
:100F7000160163DA81E08093150185E08093080112
:100F800011C08FEA90E0F7DE60911E0170911F01A1
:100F900083E697D960911C0170911D0187E691D974
:100FA0001092150110921701089580911701811177
:100FB0000EC048E363E087E2E4D8809116013DDA91
:100FC00081E08093170185E08093080105C08FEAD6
:100FD00090E0D1DE109217011092150108958091D2
:100FE0001501882329F14CE151E06EE171E0809117
:100FF0001601EEDE80911E0190911F011DDC809193
:101000001C0190911D014FDC60911E0170911F0128
:1010100083E657D960911C0170911D0187E651D973
:1010200010921A0181E080931901809318010FC07A
:1010300080911701882359F040911C0150911D01A6
:1010400060911E0170911F0180911601AADE8FEA46
:1010500090E091DE109217011092150108950F9300
:10106000CF93DF9300D000D0CDB7DEB780911701CA
:10107000811105C080911501882309F43FC080913A
:10108000080181113BC0809114018823C9F080912F
:101090001601D3D980911501882331F1AE014D5F3E
:1010A0005F4FBE016F5F7F4F8091160191DE6981B6
:1010B0007A8183E606D96B817C8187E602D914C0E8
:1010C0000DE52DE54DE56DE58BE678D880911501B0
:1010D000882351F02DE54DE56DE583E66FD82DE5CC
:1010E0004DE56DE587E66AD881E090911401911194
:1010F00080E08093140183E0809308010F900F90AB
:101100000F900F90DF91CF910F91089590E0FC0127
:10111000EE0FFF1FEE0FFF1FEC5BFE4F4081518172
:1011200062817381452B462B472B51F1FC01EE0F59
:10113000FF1FEE0FFF1FE85DFE4F4081518162816E
:1011400073814F5F5F4F6F4F7F4F40835183628347
:101150007383453651056105710590F0880F991F1D
:10116000880F991FFC01E85DFE4F108211821282E8
:101170001382FC01EC5BFE4F1082118212821382FB
:101180000895CF93C9B1C17080910E01C81779F04D
:1011900080912001813059F0C13021F488EB90E03A
:1011A000EADD03C08FEB90E0E6DDC0930E01CF9146
:1011B000089586ED90E0DFDD82E590E0DCDD82E4FD
:1011C00090E0D9DD44E366E083E2DBD766EC77E0CC
:1011D00083E477D865E070E087E473D80895CF930F
:1011E000DF9300D0CDB7DEB788EE93E09DD780EFD8
:1011F000C1D7BE016E5F7F4FCE0101964EDD8A8161
:10120000882311F081EC01C080ECB4D78981885229
:10121000B1D784E690E088D780EBACD781EAAAD733
:1012200084E690E081D7C5DF88EB9BE07DD788E737
:1012300090E0A1DD8BEC90E09EDD0F900F90DF91B0
:10124000CF91089510921B0199DC90931F01809318
:101250001E01BC0183E635D8C5DC90931D01809347
:101260001C01BC0187E62DD881E08093200180E03D
:1012700090E0E2DA80E090E016DB30DD0895EF9256
:10128000FF920F931F93CF93DF937C01892B29F05B
:10129000009188001091890004C000918A0010918B
:1012A0008B00C0E0D0E08BDAA2DAC80FD11D87FD39
:1012B000DA95E114F10441F0CE01800F911F909373
:1012C00089008093880007C0CE01800F911F909302
:1012D0008B0080938A00BE0187E481D83499E3CFE4
:1012E000CE01800F911FDF91CF911F910F91FF9041
:1012F000EF90089541E363E082E243D788EC90E009
:1013000013D74EE163E082E23CD788EC90E00CD743
:101310003399F0CF86EC90E02EDD0895CF92DF92E6
:10132000EF92FF920F931F93CF93DF93CDB7DEB76A
:101330002C970FB6F894DEBF0FBECDBF57DC8111DE
:1013400083DC54DC882321F086B1857009F0CFC09E
:1013500080EF10D748E361E284E013D741E365E012
:1013600087E20FD784E690E09EDA64E670E087E6D5
:10137000A8D788E893E19A87898788EA91E69C87CD
:101380008B878CE291E09E838D838CED95E098872E
:101390008F831A8219821C821B8210E038C08BEC6A
:1013A00090E0E9DC44E365E083E2EBD6E12EF12C4A
:1013B000EE0CFF1C81E090E08C0F9D1FE80EF91EE3
:1013C000F701C084D184C60137DA61E5610F0CE50D
:1013D0002AE54BE583E4F2D6B60183E672D70DE544
:1013E0002DE54DE56DE587E4E9D684DF8FEB90E0F0
:1013F000C2DC48E362E087E2C4D688EC90E094D691
:1014000081E090E03CDFF701918380831F5F123021
:1014100030F28B819C8129813A81821B930B9093BE
:101420000701809306019695879596958795281BC9
:10143000390B309305012093040180EE9EE2FCD924
:1014400080EB98D660EE7EE283E63BD710E038C0B2
:101450008BEC90E090DC49E165E083E292D641E3D9
:1014600063E087E28ED6E12EF12CEE0CFF1C81E0CA
:1014700090E08C0F9D1FE80EF91EF701C480D58007
:10148000C60111DA63E5610F0CE52AE54BE583E45B
:1014900095D6B60187E615D70DE52DE54DE56DE549
:1014A00087E48CD627DF88EB90E065DC88EC90E061
:1014B0003BD680E090E0E3DEF701918380831F5FFD
:1014C000123030F28B819C8129813A81821B930BEF
:1014D0009093030180930201969587959695879541
:1014E000281B390B30930101209300018FDB88E723
:1014F00090E041DC8BEC90E03EDC2C960FB6F8944B
:10150000DEBF0FBECDBFDF91CF911F910F91FF9036
:10151000EF90DF90CF9008950F9361E5680F0CE591
:1015200020E54DE587E44AD60F910895CF93DF93E8
:1015300000D0CDB7DEB782E590E01DDC86ED90E00F
:101540001ADC82E490E017DC48E362E087E219D617
:101550008981E2DFBE016E5F7F4FCE0101969DDB88
:101560008981DADF2CD943D9082E000C990B181683
:10157000190664F42981273048F481E0820F8983B9
:1015800089ED820FF7D58981C7DF0CC0992354F408
:101590008981882339F09FEF980F99838952EAD582
:1015A0008981BADF329904C081ECE4D581E08A8375
:1015B000309903C080ECDED51A823499D3CF6A818A
:1015C00089815FDB85E690E0D6DB86ED90E0D3DBBA
:1015D00085DB0F900F90DF91CF9108951F93CF93EC
:1015E000DF93182FC82FD0E0FE01EE0FFF1FEE0F84
:1015F000FF1FEC5BFE4F80819181A281B381019638
:10160000A11DB11D80839183A283B383843F914048
:10161000A105B10511F4812FFCDB133081F4CC0F4F
:10162000DD1FCC0FDD1FCC5BDE4F88819981AA8145
:10163000BB8180369A4EA105B10509F477DFDF91B1
:10164000CF911F910895CF93C6B1C3FD03C080E031
:10165000C5DF02C080E05ADDC0FD03C081E0BEDF0F
:1016600002C081E053DDC2FD03C082E0B7DF02C0EB
:1016700082E04CDDC1FD03C083E0B0DF02C083E047
:1016800045DD499903C084E0A9DF02C084E03EDD66
:10169000C5FD03C085E0A2DF02C085E037DDC4FDE3
:1016A00003C086E09BDF02C086E030DDCF91089565
:1016B0004ED5B8D52ED797D526D773D890DD2EDE48
:1016C000C1DD15D793D963DA5CDD79D8BCDFC7DC1F
:1016D000F9CFDB018F939F9358D0BF91AF91A29F19
:1016E000800D911DA39F900DB29F900D1124089520
:1016F00097FB072E16F4009406D077FD08D055D03E
:1017000007FC05D03EF4909581959F4F0895709504
:1017100061957F4F0895A1E21A2EAA1BBB1BFD0104
:101720000DC0AA1FBB1FEE1FFF1FA217B307E407C0
:10173000F50720F0A21BB30BE40BF50B661F771F18
:10174000881F991F1A9469F76095709580959095F8
:101750009B01AC01BD01CF01089505D0332312F4E4
:101760008A1B9B0B0DC0A29FB001B39FC001A39F1A
:1017700001D0B29F700D811D1124911D0895F3DFDA
:10178000B7FF0895821B930B0895EDDFA59F900D81
:10179000B49F900DA49F800D911D11240895B7FF53
:1017A000F4CFF3DF821B930B0895AA1BBB1B51E1FF
:1017B00007C0AA1FBB1FA617B70710F0A61BB70BC1
:1017C000881F991F5A95A9F780959095BC01CD0166
:1017D0000895A8E1B0E042E050E005C012D0272F04
:1017E00011C0DC01CB01FC01F999FECF06C0F2BDAE
:1017F000E1BDF89A319600B40D9241505040B8F7CF
:101800000895262FF999FECF1FBA92BD81BD20BD44
:101810000FB6F894FA9AF99A0FBE01960895F894C3
:02182000FFCFF8
:0E18220076007E167B002627056400E8030092
:00000001FF
