:100000006AC084C083C097C281C080C07FC07EC0E8
:100010007DC064C87BC07AC079C078C077C076C024
:1000200075C074C073C072C071C070C06FC06EC044
:100030006DC06CC01ACB31CB66CB95CB9ECBC1CB00
:10004000D8CB0F23051927031E23031E23061B27C6
:10005000011923021E0F2305342703312303312303
:1000600006342701342302311824071D24061524E1
:10007000061D24051527011D27011527021D27022E
:10008000153623053423063427033127013423038F
:100090003123023100233804273404203804213866
:1000A000230531270531240638435D505050475011
:1000B0005050504B505050500922033127031D20FF
:1000C000051D0927033220051D22031E09200532C4
:1000D00027031D22031E11241FBECFEFD4E0DEBF75
:1000E000CDBF11E0A0E0B1E0E8EEFCE102C0059078
:1000F0000D92A232B107D9F721E0A2E2B1E001C02E
:100100001D92A436B207E1F74BDDECCD79CF40E08C
:1001100050E00CC000002F5F3F4F02C020E030E0F5
:10012000203263E03607B0F34F5F5F4F481759073F
:10013000A8F3089584B18C6284B984B18F7E84B9A8
:1001400085B1806185B98CB580618CBD8CB58D60C1
:100150008CBD8CB580648CBD08958EBD0DB407FE3A
:10016000FDCF1C99FECF0895CF93DF93D62FC42FD8
:10017000F4DF8D2FF2DF8C2FF0DFDF91CF91089528
:100180000F931F93CF93DF93162FD42FC22FE5DF4A
:10019000812FE3DF8D2FE1DF8C2FDFDF802FDDDF8D
:1001A000DF91CF911F910F9108958FEF9FE390936F
:1001B0008700809386001092890010928800109228
:1001C0008B0010928A00E0E8F0E08081806A8083F2
:1001D000808182608083E1E8F0E0808188618083B3
:1001E00080818160808308958AB1806B8AB984B1EF
:1001F000826084B984B1846084B98AB180648AB928
:1002000084B18E7F84B987B18F7D87B987B18F7EA6
:1002100087B987B18D7F87B987B18E7F87B987B15D
:100220008B7F87B987B1877F87B98AB18D7F8AB97C
:100230008AB18E7F8AB98AB1877F8AB98AB18B7F6A
:100240008AB985B1816085B988B1806288B988B181
:10025000806188B988B1826088B988B1816088B9C5
:1002600088B1846088B988B1886088B98BB18260B0
:100270008BB98BB181608BB98BB188608BB98BB135
:1002800084608BB908950F931F93CF93DF93FC0184
:100290008B0140E028C0E801C40FD11D9F01ADECE7
:1002A000BCECD8DC9695879596958795969587951D
:1002B0009C01220F331F880F991F880F991F880FE9
:1002C000991F820F931F9F01281B390BC901805B67
:1002D00088839F01BFDCFC01F695E795F695E795CD
:1002E000F695E7954F5F4430B0F2DF91CF911F91C3
:1002F0000F9108950F931F93CF938B012EDFC0E0D2
:1003000006C0F801EC0FF11D808127DFCF5FC430FC
:10031000C0F3CF911F910F9108951F93CF93DF9357
:1003200000D000D0CDB7DEB7182FCB01133411F0B9
:10033000133651F49C01ADECBCEC8CDC96958795A2
:100340009695879596958795BE016F5F7F4F9BDF4A
:10035000133421F0133611F01B3429F48C818035CD
:1003600011F48DE58C83BE016F5F7F4F812FC2DF5B
:100370000F900F900F900F90DF91CF911F910895E4
:10038000FF920F931F93CF93DF9300D000D0CDB790
:10039000DEB7F82E8B01CB01772324F48827992729
:1003A000861B970BBE016F5F7F4F6DDF8C818035A1
:1003B00061F48DE58C838B81803539F48DE58B83F9
:1003C0008A81803511F48DE58A8311237CF4073FFF
:1003D0008FEF18071CF08FE58A8308C00D391F4F77
:1003E0001CF08FE58B8302C08FE58C83BE016F5FAD
:1003F0007F4F8F2D7FDF0F900F900F900F90DF9129
:10040000CF911F910F91FF9008950F939DEC899FBD
:10041000912D112496959695969500E5090F990FC3
:10042000292F220F220F920F891B20E5280F4DE55F
:100430006DE58BE6A5DE0F9108950F931F93AC0138
:100440009C013695279536952795ABE7B4E102DCFC
:10045000FC01F695E7959A013695279536952795EF
:1004600036952795A5ECB0E2F5DB8C011295029547
:100470000F7001271F7001279F01ADECBCECEADB78
:100480009695879596958795969587959C01220FC9
:10049000331F880F991F880F991F880F991F820F8C
:1004A000931F9F01281B390BC901005B20E5280F12
:1004B0004DE56DE58BE664DE1F910F910895E8E64A
:1004C000F0E0808181608083EBE6F0E080818160F4
:1004D000808378940895E1EBF0E0808183608083ED
:1004E000089585B5836085BD84B5836884BD8FE735
:1004F00087BD08951092B4008AE08093B20081E035
:1005000090915D01933009F080E080935E01E0E717
:10051000F0E080818160808387B3816087BB8BB38B
:1005200081608BBBE1EBF0E080818360808381E0C0
:1005300080935B0108951F920F920FB60F921124C2
:100540008F93EF93FF9318990AC0E1EBF0E080815D
:100550008C7F808310925B018BB1806B8BB9FF9194
:10056000EF918F910F900FBE0F901F9018952091D3
:100570004C0130914D01A0914A01B0914B0164DBD7
:1005800020E137E240E050E021DBB9018BE4C5DE39
:10059000089520915A01211107C0609109017091BD
:1005A0000A016817790768F060E070E083E4B5DE5F
:1005B00060E070E08BE4B1DE10924D0110924C01CE
:1005C0000895A0E0B0E09C01AD01261B370B410966
:1005D0005109A0E2BEE450DB20910B0130910C01E7
:1005E000A90156954795640F751F811D911D40E027
:1005F00050E00EDB30934D0120934C01B90183E4B0
:100600008CDEB5DF089520915A01211107C0609159
:100610000501709106016817790768F060E070E0E5
:1006200087E47BDE60E070E08BE477DE10924B01C4
:1006300010924A010895A0E0B0E09C01AD01261B94
:10064000370B41095109A0EBB4E016DB20910701FB
:1006500030910801A90156954795640F751F811DBA
:10066000911D40E050E0D4DA30934B0120934A01D1
:10067000B90187E452DE7BDF0895DC0120E030E041
:1006800043E050E0F9DADC01CB01A055B644CD01DE
:10069000AA27BB2720915101211105C020914F01AC
:1006A000211101C0CADE08954B9902C080E001C04B
:1006B00083E04A9B02C091E08927809361011092F8
:1006C0006001089580916001982F9370909360016C
:1006D000859585950895FF920F931F93CF93DF9390
:1006E000F82E10E000E0C0E0D0E033C08BB18F7492
:1006F00080698BB9FFDE80915B018111FCCF8BB1EA
:100700008F74F11002C090E001C090E1892B8BB989
:10071000F1DE80915B018111FCCF8BB18F74806819
:100720008BB9E8DE80915B018111FCCF8091B40030
:1007300090E0982F88272091B200822B9C01C2174D
:10074000D30721F40F5F053011F406C000E01F5FEE
:10075000EC01123358F201C0E901CE01DF91CF91D3
:100760001F910F91FF900895ADDF082E000C990B9B
:10077000009719F410925F01089521E020935F0122
:100780001816190644F4209150012F3020F42F5FE1
:100790002093500109C099233CF480915001882393
:1007A00019F0815080935001809150012EDE1092FB
:1007B0004E0183E0809315010895CF93DF93EC0100
:1007C0006091130170911401CB01A0E0B0E0DC0155
:1007D00099278827BC01CD01605F784D8F4F9F4FCF
:1007E00020E23EE440E050E0F1D9DE014FDA209112
:1007F000110130911201820F931F90938900809311
:100800008800C8398AE3D8071CF081EBA6DC06C053
:10081000C53A88E3D80714F480EB9FDCBE0183E47B
:100820007CDDDF91CF910895CF93DF93EC01609150
:100830000F0170911001CB01A0E0B0E0DC0199271D
:100840008827BC01CD01685A7D4F8F4F9F4F20EB09
:1008500034E040E050E0BAD9DE0118DA20910D0111
:1008600030910E01820F931F90938B0080938A002A
:10087000BE0187E452DDDF91CF910895809151014F
:10088000811104C080914F01882311F06DDF08951C
:1008900019DF811103C010925F01089591E09093D8
:1008A0005F0190915501911130C040911801509114
:1008B0001901682F64039001659F300D1124809108
:1008C000580190915901820F931F90935901809381
:1008D000580199232CF4109259011092580109C023
:1008E0008033954734F080E395E7909359018093E6
:1008F000580180915801909159015FDF8EE18093FA
:10090000540181E0809353010895913079F540912D
:10091000160150911701682F64039001659F300DF7
:1009200011248091560190915701820F931F90934B
:1009300057018093560199232CF41092570110927D
:10094000560109C0883B9B4034F088EB9BE09093B4
:10095000570180935601809156019091570164DFB1
:100960008EE18093540181E0809352010895CF93EA
:10097000C0E008C08C2F90E060E070E0880F991F05
:1009800090D9CF5FC033B0F3CF910895BC0180E020
:1009900090E087D9089580E090E07ED90895BC0169
:1009A00082E090E07ED9089580915401811111C0B8
:1009B00080915301882369F08091580190915901E9
:1009C000E5DF609158017091590183E6A6DC109231
:1009D000530180915401811111C0809152018823EB
:1009E00069F08091560190915701D9DF60915601CD
:1009F0007091570187E691DC10925201089582E0D0
:100A000090E04AD908958770677090E1699FB001BE
:100A10001124682B7C6C84E090E043D908950F93F7
:100A20001F93CF93DF938C01EB0184E090E034D9E6
:100A30009C01222721153C4C71F4282F2770F801C6
:100A4000208380779927929582958F7089279F7050
:100A50008927888305C087E0F801808381E0888347
:100A6000DF91CF911F910F9108958EE090E014D9FE
:100A700021E0813A9C4009F020E0822F089561EA4C
:100A80007CE08EE090E00DD90895609111017091A5
:100A9000120180E190E005D9609113017091140179
:100AA00082E190E0FED860910D0170910E0184E129
:100AB00090E0F7D860910F017091100186E190E00D
:100AC000F0D86091090170910A0188E190E0E9D8BD
:100AD00060910B0170910C018AE190E0E2D8609185
:100AE0000501709106018CE190E0DBD8609107016F
:100AF000709108018EE190E0D4D8C1DF089580E1C3
:100B000090E0CAD8909312018093110182E190E0A5
:100B1000C3D8909314018093130184E190E0BCD872
:100B200090930E0180930D0186E190E0B5D89093EB
:100B3000100180930F0188E190E0AED890930A01F4
:100B4000809309018AE190E0A7D890930C018093EB
:100B50000B018CE190E0A0D89093060180930501F1
:100B60008EE190E099D89093080180930701089551
:100B70000F931F93CF93DF938A01C82FD0E028965D
:100B8000CC0FDD1FCC0FDD1FCE018BD8B801CE01FD
:100B9000029687D8DF91CF911F910F910895EF9220
:100BA000FF920F931F93CF93DF937B018A01C82F8E
:100BB000D0E02896CC0FDD1FCC0FDD1FCE016CD806
:100BC000F70191838083CE01029666D8F801918364
:100BD0008083DF91CF911F910F91FF90EF90089547
:100BE00080915501811125C08091180190911901C2
:100BF0008A30910529F448E365E084E2B5DA089586
:100C00008436910529F442E366E084E2ADDA089582
:100C1000883E23E0920729F448E366E084E2A4DA00
:100C200008958031974241F542E367E084E29CDA1F
:100C3000089580911601909117018130910529F452
:100C400048E362E087E290DA08958A30910529F45A
:100C500042E362E087E288DA08958436910529F458
:100C600048E361E087E280DA0895883E934021F40A
:100C700042E361E087E278DA08950F931F93CF9300
:100C8000DF938C01FC01D491C1E006C0F801EC0FA8
:100C9000F11D849162DACF5FDC17C0F7DF91CF914D
:100CA0001F910F91089581EA58DA81E080935A01EB
:100CB0000895CF92DF92EF92FF92DC0120E030E0C6
:100CC00043E050E0D9D76B017C0120E5E21A26E42D
:100CD000F20A6701EE24FF2480915101811106C0C0
:100CE00080914F01811102C0C601A7DB96013695A4
:100CF000279536952795ABE7B4E1ACD77C01F69400
:100D0000E7948BE4E816F10410F0CDDF21C026E46F
:100D1000E216F10438F044E361E082E225DA8FEF75
:100D200087BD16C085E4E816F10490F441E161E066
:100D300082E21ADA24E2E216F10418F484E187BDB3
:100D400007C08FE1E81A80ECF80AEE0CEE0CE7BC65
:100D5000FF90EF90DF90CF900895CF93DF93809135
:100D60005B018111B3C080915D01811109C081E0F7
:100D700080935D018BB18F7480698BB9BBDBA6C09A
:100D8000813021F582E080935D0180915C018111C9
:100D900003C08BB18F748BB980915C01813021F4D9
:100DA0008BB18F7480618BB980915C01823021F4AA
:100DB0008BB18F7480628BB980915C01833021F498
:100DC0008BB18F7480638BB995DB80C0823049F41E
:100DD00083E080935D018BB18F7480688BB98ADB6F
:100DE00075C0833009F072C08091B40090E0982FF4
:100DF00088272091B200EC01C22B10925E018091F5
:100E00002D01811114C080915F01811110C080916A
:100E1000540181110CC080915C01811102C0CE018E
:100E2000B8DB80915C01813011F4CE01ECDB809164
:100E30005C01823011F4CE0120DC80915C018330B2
:100E400011F4CE0136DF909122019F5F9093220131
:100E500089E2989F812D1124869586958695392F54
:100E600022E3829F30191124311104C082E0809363
:100E70005C0119C089E2989F812D11248695869581
:100E8000392F29E1829F30191124311104C083E0E8
:100E900080935C0108C090FD03C010925C0103C008
:100EA00081E080935C0110925D0110925B01E6DCB1
:100EB00080915401882319F08150809354018091CE
:100EC0001501882319F0815080931501DF91CF918E
:100ED000089580EA42D910925A01089588E690E078
:100EE000CCDE089582E490E0C8DE08950F930DE50E
:100EF0002DE54DE56DE544D90F91089583E4F6DFC6
:100F000087E4F4DF8BE4F2DF089545E163E087E2F4
:100F10002BD98BE6EBDF0895CF93DF9300D000D081
:100F2000CDB7DEB780915101811104C080914F018E
:100F30008823A9F180911501811131C080914E0162
:100F40008823C9F08091500160DA80914F01882395
:100F5000E1F0AE014D5F5F4FBE016F5F7F4F80914B
:100F600050011DDE69817A8183E6D7D96B817C814E
:100F700087E6D3D90AC08BE6B9DF80914F01882379
:100F800021F083E6B3DF87E6B1DF81E090914E0187
:100F9000911180E080934E0183E0809315010F90C2
:100FA0000F900F900F90DF91CF91089580910101E4
:100FB00090910201A0910301B0910401892B8A2B29
:100FC0008B2B71F481ECC9D881E090E0A0E0B0E017
:100FD0008093010190930201A0930301B093040157
:100FE0008091230190912401A0912501B0912601C7
:100FF0008093280190932901A0932A01B0932B019B
:1010000008958091270181111AC04B9902C090E088
:1010100001C093E04A9B02C081E098278091610162
:10102000891B282F80FF09C09093610182709091E5
:101030006001890F8150809360012111B7DF08950D
:101040000F931F93CF93DF93E0916201F0E0E65E90
:10105000FE4F80819CE3899FE00111242097C9F114
:101060008091010190910201A0910301B0910401CE
:10107000892B8A2B8B2B69F180912301909124017C
:10108000A0912501B091260100912801109129011C
:1010900020912A0130912B01BC01CD01601B710B05
:1010A000820B930B2EE533E040E050E08FD5CE016C
:1010B000A0E0B0E082179307A407B50750F480ECD6
:1010C0004CD810920101109202011092030110926B
:1010D0000401DF91CF911F910F9108951F920F92FC
:1010E0000FB60F9211242F933F934F935F936F93FB
:1010F0007F938F939F93AF93BF93EF93FF93E4EB13
:10110000F0E080818F5F80838081803370F08091F8
:101110005E0181110AC0E1EBF0E080818C7F808369
:1011200010925B018BB1806B8BB980912301909100
:101130002401A0912501B0912601BC01CD016F5F72
:101140007F4F8F4F9F4F60932301709324018093B3
:101150002501909326012EE533E040E050E036D59E
:10116000672B682B692B09F46BDFFF91EF91BF911F
:10117000AF919F918F917F916F915F914F913F912F
:101180002F910F900FBE0F901F901895CF938091C5
:101190005A01811103C0C9B1C17001C0C2E0809180
:1011A0000001C81799F0C13041F018F0C23049F081
:1011B0000BC08CEC90E061DD07C082EC90E05DDD5F
:1011C00003C088EB90E059DDC0930001CF910895F2
:1011D00085DE88DE93DE44E366E083E2C5D766EC15
:1011E00077E083E49AD869E070E087E4C9D808958D
:1011F000CF93DF9300D0CDB7DEB788EE93E087D7EB
:1012000080EFABD7BE016E5F7F4FCE01019607DC4A
:101210008A81882311F081EC01C080EC9ED78981FE
:1012200088529BD7D5DF88EB9BE071D781E890E0AF
:1012300024DD0F900F90DF91CF910895109255010A
:10124000AADB9093590180935801BC0183E665D8CD
:10125000D6DB9093570180935601BC0187E65DD899
:101260000895FF920F931F93CF93DF93F82E811170
:1012700005C0009188001091890004C000918A0087
:1012800010918B00C0E0D0E0BCDE1CDAC80FD11D8D
:1012900087FDDA95F11008C0CE01800F911F909361
:1012A00089008093880007C0CE01800F911F909322
:1012B0008B0080938A00BE0187E462D83499E4CF22
:1012C00087E414DE8CE291E022D7BE0187E458D88F
:1012D00088EE93E01CD7CE01800F911FDF91CF9154
:1012E0001F910F91FF90089541E363E082E23CD7A4
:1012F00088EC90E00CD74EE163E082E235D788ECD1
:1013000090E005D73399F0CFE4DD0895CF92DF92D6
:10131000EF92FF920F931F93CF93DF93CDB7DEB77A
:101320002C970FB6F894DEBF0FBECDBF88E893E1CF
:101330009A83898388EA91E69C838B831E821D822F
:1013400018861F8284E690E06FDA64E670E087E634
:10135000E4D710E036C0A7DC44E365E083E204D7BD
:10136000E12EF12CEE0CFF1C81E090E08C0F9D1F14
:10137000E80EF91EF701C080D180C6011EDA61E5D2
:10138000610F0CE52AE54BE583E4FAD6B60183E666
:10139000C4D787E4ABDDA8DF8CEC90E06EDC48E3DB
:1013A00062E087E2E1D688EC90E0B1D680E059DFD8
:1013B000F7019583848380E08ED9F7019187808738
:1013C0001F5F123040F28F8198852D813E81821BF4
:1013D000930B90931401809313019695879596959E
:1013E0008795281B390B30931201209311018B85AF
:1013F0009C8529853A85821B930B90930C018093E1
:101400000B019695879596958795281B390B3093F8
:101410000A01209309012C960FB6F894DEBF0FBE87
:10142000CDBFDF91CF911F910F91FF90EF90DF9093
:10143000CF900895CF92DF92EF92FF920F931F9378
:10144000CF93DF93CDB7DEB72C970FB6F894DEBFFE
:101450000FBECDBF8CE291E09A8389838CED95E03D
:101460009C838B831E821D8218861F8280EE9EE2E3
:10147000A4D960EE7EE283E650D710E036C013DCDC
:1014800049E165E083E270D641E363E087E26CD630
:10149000E12EF12CEE0CFF1C81E090E08C0F9D1FE3
:1014A000E80EF91EF701C080D180C601BDD963E501
:1014B000610F0CE52AE54BE583E462D6B60187E6C9
:1014C0002CD787E413DD10DF82EC90E0D6DB88ECCC
:1014D00090E01DD681E0C5DEF7019583848381E02D
:1014E000FAD8F701918780871F5F123040F28F8111
:1014F00098852D813E81821B930B909310018093E0
:101500000F019695879596958795281B390B3093F3
:101510000E0120930D018B859C8529853A85821BC0
:10152000930B909308018093070196958795969564
:101530008795281B390B30930601209305012C96C3
:101540000FB6F894DEBF0FBECDBFDF91CF911F91D4
:101550000F91FF90EF90DF90CF90089586DA811180
:10156000CEDA83DA882319F086B1857069F480EFCA
:10157000F4D548E361E284E0F7D541E365E087E232
:10158000F3D5C4DE57DF81DA81E890E076DB8BDBD0
:1015900008950F93CF93C82F0CE520E54DE56DE539
:1015A00083E4EED56C2F70E06F5F7F4F87E4E8D661
:1015B000CF910F9108950F93CF93C82F01E52BE59D
:1015C0004BE56DE583E4DCD5EC2FF0E0E65EFE4F05
:1015D000608170E087E4D4D6CF910F910895E82F11
:1015E00080912701882371F0E1110CC090915A017C
:1015F000911108C080E090E0E0D880E090E014D93C
:1016000052DB089590912D01992319F1E33081F077
:10161000E63009F02DC16091620180916301F3D938
:1016200085E590E02ADB5ADCDBDA10922D01089583
:1016300081E090912C01911180E080932C01811127
:1016400004C080916301A5DF089580916201B3DF3A
:10165000089581110DC18E2F90E08730910508F01B
:1016600007C1FC01E65EFF4F099480915A01811188
:1016700008C019DB80E090E0A0D880E090E0D4D8EA
:101680000895809158019091590197D88091560101
:1016900090915701C9D81DDC0895809155018111A1
:1016A00018C08091180190911901803127E29207AA
:1016B00038F59C01220F331F880F991F880F991F3F
:1016C000880F991F820F931F90931901809318011F
:1016D00017C08091160190911701883E23E0920770
:1016E00078F49C01220F331F880F991F880F991FD0
:1016F000880F991F820F931F9093170180931601F3
:10170000EDDB6EDA089580915501811115C02091AD
:101710001801309119012B30310510F1ADECBCEC02
:1017200099D2969587959695879596958795909356
:1017300019018093180114C02091160130911701EE
:101740002230310568F0ADECBCEC84D296958795DB
:101750009695879596958795909317018093160196
:10176000BDDB3EDA0895BADB81E09091550191111D
:1017700080E08093550134DA089580914F01811102
:101780000EC048E363E087E2EFD4809150013DD67C
:1017900081E080934F0185E0809315010FC0B5DB98
:1017A000609158017091590183E6B7D56091560157
:1017B0007091570187E6B1D510924F0110925101F7
:1017C00008958091510181110EC048E363E087E2E2
:1017D000CBD48091500119D681E08093510185E0EE
:1017E0008093150103C091DB1092510110924F01BB
:1017F000089580914F01811104C090915101992366
:10180000B9F1882329F146E551E068E571E080915E
:101810005001C5D98091580190915901CED780913E
:1018200056019091570100D860915801709159016B
:1018300083E673D5609156017091570187E66DD5A7
:101840001092540181E080935301809352010BC0A8
:101850004091560150915701609158017091590182
:101860008091500185D951DB1092510110924F01A6
:1018700008950F931F93CF93DF93C82FD0E0FE01FD
:10188000EE0FFF1FEE0FFF1FE25DFE4F0081118183
:1018900022813381101611061206130694F440912A
:1018A0002301509124016091250170912601401B74
:1018B000510B620B730B4B3051056105710508F03C
:1018C0008EDECC0FDD1FCC0FDD1FC25DDE4F188218
:1018D00019821A821B82DF91CF911F910F91089577
:1018E00001DBFCDA0BDB48E362E087E23DD462E631
:1018F00071E083E691E093D8809163014ADE109213
:101900002C0181E080932D010895CF93C82F83305F
:1019100029F480912D01811101C0E2DFC150C23054
:1019200008F05CC08091320190913301A0913401A4
:10193000B09135018F3F9F4FAF4FBF4F09F04EC061
:101940008091360190913701A0913801B091390111
:101950008F3F9F4FAF4FBF4F09F040C0809146016E
:1019600090914701A0914801B0914901892B8A2BA0
:101970008B2BA1F58091420190914301A0914401EC
:10198000B0914501892B8A2B8B2B89F415C048E334
:1019900063E087E2E9D388EC90E0B9D345E163E006
:1019A00087E2E2D388EC90E0B2D3CF5F01C0C0E021
:1019B000CA3068F3DCD712C080912701882339F040
:1019C0004EE162E082E2D0D31092270107C041E3EA
:1019D00062E082E2C9D381E080932701CF9108952C
:1019E000CF92DF92EF92FF92282F30E0F901EE0FB5
:1019F000FF1FEE0FFF1FE25DFE4F408151816281AC
:101A00007381452B462B472B99F4F901EE0FFF1FED
:101A1000EE0FFF1FE25DFE4F409123015091240124
:101A20006091250170912601408351836283738305
:101A3000F901EE0FFF1FEE0FFF1FE25DFE4FC080AA
:101A4000D180E280F3809FEFC916D906E906F90636
:101A500001F1409123015091240160912501709181
:101A600026014C195D096E097F09493B5B40610500
:101A7000710578F0220F331F220F331FF901E25D49
:101A8000FE4F4FEF5FEFBA01408351836283738350
:101A90003CDF8CDAFF90EF90DF90CF900895CF93EA
:101AA000C6B1C3FD03C080E09BDF02C080E0E1DE81
:101AB000C0FD03C081E094DF02C081E0DADEC2FD38
:101AC00003C082E08DDF02C082E0D3DEC1FD03C02F
:101AD00083E086DF02C083E0CCDE499903C084E066
:101AE0007FDF02C084E0C5DEC5FD03C085E078DF8E
:101AF00002C085E0BEDEC4FD03C086E071DF02C027
:101B000086E0B7DE7EDACF910895DCD5082E000C92
:101B1000990B20912C01211122C0181619067CF472
:101B200020916301273058F481E0820F8093630194
:101B300089ED820F12D3809163012BDD08959923E3
:101B400074F580916301882351F19FEF980F909372
:101B50006301895202D3809163011BDD0895181639
:101B600019066CF420916201273048F42F5F20930E
:101B7000620181ECF2D2809162011DDD089599230A
:101B800074F480916201882351F081508093620146
:101B9000811102C080ECE1D2809162010CDD0895D8
:101BA000C9D222D39ED401D396D47ED521DB87D44B
:101BB000D5DC44DB78D8F8D6E9DA71DFADD9CDD8F9
:101BC00080912D018823B9F3A0DFF5CFA1E21A2E71
:101BD000AA1BBB1BFD010DC0AA1FBB1FEE1FFF1FD1
:101BE000A217B307E407F50720F0A21BB30BE40B21
:101BF000F50B661F771F881F991F1A9469F7609568
:101C00007095809590959B01AC01BD01CF01089521
:101C1000052E97FB16F400940FD057FD05D0D6DFA4
:101C200007FC02D046F408C05095409530952195A8
:101C30003F4F4F4F5F4F08959095809570956195F8
:101C40007F4F8F4F9F4F089505D0332312F48A1B87
:101C50009B0B0DC0A29FB001B39FC001A39F01D0F9
:101C6000B29F700D811D1124911D0895F3DFB7FF00
:101C70000895821B930B0895EDDFA59F900DB49FEF
:101C8000900DA49F800D911D11240895B7FFF4CFEE
:101C9000F3DF821B930B0895A8E1B0E042E050E02F
:101CA00005C012D0272F11C0DC01CB01FC01F9992E
:101CB000FECF06C0F2BDE1BDF89A319600B40D9298
:101CC00041505040B8F70895262FF999FECF1FBA1A
:101CD00092BD81BD20BD0FB6F894FA9AF99A0FBE55
:081CE00001960895F894FFCF6E
:101CE800FF010000000B018013A300F91A76007EA3
:101CF800167B002627056400E8030001050A1E3C40
:021D080078F071
:00000001FF
