:100000007AC094C093C0B2C291C090C08FC08EC05D
:100010008DC062C88BC08AC089C088C087C086C0B6
:1000200085C084C083C082C081C080C07FC07EC0C4
:100030007DC07CC025CB48CB7FCBB0CBBBCBE0CB4E
:10004000F9CB0001050A1E3C0F435D5D5D5D475D18
:100050005D5D5D4B5D5D5D5D0F23051927031E230F
:10006000031E23061B27011923021E0F2305342715
:10007000033123033123063427013423023136238D
:1000800005342306342703312701342303312302A7
:100090003100233804203804213804273423053163
:1000A000270531240638435D50505047505050507A
:1000B0004B50505050082703156B5D5D5D5D062762
:1000C000033220051D0620053227031D04A022034C
:1000D0001E0AA122033120051D27031D1824071D18
:1000E00024061524061D24051527011D27011527A3
:1000F000021D2702150011241FBECFEFD4E0DEBF82
:10010000CDBF11E0A0E0B1E0E4E2FDE102C0059066
:100110000D92AA31B107D9F721E0AAE1B1E001C0FF
:100120001D92AD35B207E1F732DDFACD69CF40E07F
:1001300050E00CC000002F5F3F4F02C020E030E0D5
:10014000203263E03607B0F34F5F5F4F481759071F
:10015000A8F3089584B18C6284B984B18F7E84B988
:1001600085B1806185B98CB580618CBD8CB58D60A1
:100170008CBD8CB580648CBD08958EBD0DB407FE1A
:10018000FDCF1C99FECF0895CF93DF93D62FC42FB8
:10019000F4DF8D2FF2DF8C2FF0DFDF91CF91089508
:1001A0001F93CF93DF93162FD42FC22FE6DF812F1B
:1001B000E4DF8D2FE2DF8C2FE0DFDF91CF911F9105
:1001C00008950F931F93CF93DF93162FD42FC22F31
:1001D000D4DF812FD2DF8D2FD0DF8C2FCEDF802F89
:1001E000CCDFDF91CF911F910F9108958FEF9FE3A7
:1001F0009093870080938600109289001092880067
:1002000010928B0010928A00E0E8F0E08081806A12
:100210008083808182608083E1E8F0E08081886172
:10022000808380818160808308958AB1806B8AB9E0
:1002300084B1826084B984B1846084B98AB18064F5
:100240008AB984B18E7F84B987B18F7D87B987B130
:100250008F7E87B987B18D7F87B987B18E7F87B948
:1002600087B18B7F87B987B1877F87B98AB18D7F47
:100270008AB98AB18E7F8AB98AB1877F8AB98AB1F1
:100280008B7F8AB985B1816085B988B1806288B970
:1002900088B1806188B988B1826088B988B181608D
:1002A00088B988B1846088B988B1886088B98BB111
:1002B00082608BB98BB181608BB98BB188608BB94F
:1002C0008BB184608BB90895FF920F931F93CF93E6
:1002D000DF93182FFB01833411F0833669F49F01FB
:1002E000ADECBCECC1DCFC01F695E795F695E79525
:1002F000F695E79541E001C040E09F0136952795CE
:100300003695279536952795A5ECB0E2ADDC92950C
:1003100082958F7089279F708927805B082F4111F4
:1003200002C01B3419F4803509F40DE59F013695A0
:1003300027953695279536952795A5ECB0E294DC60
:10034000AC01529542954F7045275F70452728EEC6
:1003500033E0429FC001439F900D529F900D1124A6
:10036000AF01481B590BEA01D695C795D695C7959D
:100370009E01ABE7B4E178DCFC01F695E7950F2E22
:10038000F0E5FF2EF02DFE0E24E62E9FC0012F9FDC
:10039000900D1124FA01E81BF90B9F01ADECBCECA8
:1003A00063DCEC01D695C795D695C795D695C795CC
:1003B0004C2F405BCE01880F991FCC0FDD1FCC0F57
:1003C000DD1FCC0FDD1FC80FD91FEC1BFD0B60E537
:1003D0006E0F2F2D812FF5DEDF91CF911F910F91A1
:1003E000FF9008950F93382FCB0199232CF491950A
:1003F000819591090FE501C00DE568EE73E0DDDB45
:10040000FC0164E670E0D9DB20E5260F203509F415
:100410002DE5CF0164E670E0D0DBFC016AE070E01E
:10042000CCDB40E5460F403509F44DE5CF016AE0ED
:1004300070E0C3DB60E5680F832FC3DE0F91089582
:100440000F939DEC899F912D1124969596959695E5
:1004500000E5090F990F292F220F220F920F891BF8
:1004600020E5280F4DE56DE58BE6ABDE0F91089595
:100470000F931F93AC019C013695279536952795D0
:10048000ABE7B4E1F1DBFC01F695E7959A0136950F
:1004900027953695279536952795A5ECB0E2E4DBB0
:1004A0008C01129502950F7001271F7001279F0183
:1004B000ADECBCECD9DB969587959695879596958E
:1004C00087959C01220F331F880F991F880F991F52
:1004D000880F991F820F931F9F01281B390BC90199
:1004E000005B20E5280F4DE56DE58BE66ADE1F9188
:1004F0000F910895E8E6F0E0808181608083EBE66B
:10050000F0E080818160808378940895E1EBF0E0F1
:10051000808183608083089585B5836085BD84B5BF
:10052000836884BD8FE787BD08951092B4008AE088
:100530008093B20081E090915601933009F080E001
:1005400080935701E0E7F0E080818160808387B38A
:10055000816087BB8BB381608BBBE1EBF0E0808176
:100560008360808381E08093540108951F920F92ED
:100570000FB60F9211248F93EF93FF9318990AC02F
:10058000E1EBF0E080818C7F8083109254018BB18D
:10059000806B8BB9FF91EF918F910F900FBE0F90F1
:1005A0001F9018952091450130914601A09143017B
:1005B000B091440153DB20E137E240E050E010DB32
:1005C000B9018BE481DE089520915301213039F087
:1005D00060910801709109016817790768F060E07F
:1005E00070E083E471DE60E070E08BE46DDE109219
:1005F0004601109245010895A0E0B0E09C01AD01D4
:10060000261B370B41095109A0E2BEE43FDB2091D4
:100610000A0130910B01A90156954795640F751F8A
:10062000811D911D40E050E0FDDA3093460120939A
:100630004501B90183E448DEB5DF089520915301F7
:10064000213039F060910401709105016817790734
:1006500068F060E070E087E437DE60E070E08BE433
:1006600033DE10924401109243010895A0E0B0E0FF
:100670009C01AD01261B370B41095109A0EBB4E0E9
:1006800005DB2091060130910701A9015695479598
:10069000640F751F811D911D40E050E0C3DA309357
:1006A000440120934301B90187E40EDE7BDF089506
:1006B000CF92DF92EF92FF92DC0120E030E043E046
:1006C00050E0E4DA6B017C0120E5E21A26E4F20A4C
:1006D0006701EE24FF2480914A01811106C08091B8
:1006E0004801811102C0C601C3DE960136952795E7
:1006F00036952795ABE7B4E1B7DA7C01F694E79439
:100700008BE4E816F10448F021E343E062E281EA79
:1007100047DD81E08093530121C026E4E216F10415
:1007200038F044E361E082E22FDD8FEF87BD16C031
:1007300085E4E816F10490F441E161E082E224DD11
:1007400024E2E216F10418F484E187BD07C08FE1CA
:10075000E81A80ECF80AEE0CEE0CE7BCFF90EF9084
:10076000DF90CF900895DC0120E030E043E050E0DE
:100770008DDADC01CB01A055B644CD01AA27BB27F9
:1007800020914A01211105C020914801211101C089
:100790006FDE08954B9902C080E001C083E04A9B60
:1007A00002C091E0892780935A011092590108955F
:1007B00080915901982F9370909359018595859553
:1007C0000895FF920F931F93CF93DF93F82E10E0BD
:1007D00000E0C0E0D0E033C08BB18F7480698BB98A
:1007E000A4DE809154018111FCCF8BB18F74F11084
:1007F00002C090E001C090E1892B8BB996DE809118
:1008000054018111FCCF8BB18F7480688BB98DDE60
:10081000809154018111FCCF8091B40090E0982F19
:1008200088272091B200822B9C01C217D30721F4A4
:100830000F5F053011F406C000E01F5FEC011233BA
:1008400058F201C0E901CE01DF91CF911F910F91C4
:10085000FF900895ADDF082E000C990B009719F456
:1008600010925801089521E0209358011816190696
:1008700044F4209149012F3020F42F5F2093490147
:1008800009C099233CF480914901882319F08150D3
:100890008093490180914901D3DD1092470183E0A3
:1008A000809314010895CF93DF93EC0160911201BE
:1008B00070911301CB01A0E0B0E0DC0199278827FB
:1008C000BC01CD01605F784D8F4F9F4F20E23EE429
:1008D00040E050E085D9DE01E3D92091100130914C
:1008E0001101820F931F9093890080938800C8396B
:1008F0008AE3D8071CF081EB40DC06C0C53A88E3E8
:10090000D80714F480EB39DCBE0183E4DDDCDF9131
:10091000CF910895CF93DF93EC0160910E01709118
:100920000F01CB01A0E0B0E0DC0199278827BC01D2
:10093000CD01685A7D4F8F4F9F4F20EB34E040E050
:1009400050E04ED9DE01ACD920910C0130910D015F
:10095000820F931F90938B0080938A00BE0187E4DF
:10096000B3DCDF91CF91089580914A01811104C0D9
:1009700080914801882311F06DDF089519DF8111FE
:1009800003C010925801089591E0909358019091FE
:100990004E01911130C04091170150911801682FFC
:1009A00064039001659F300D112480915101909155
:1009B0005201820F931F909352018093510199230A
:1009C0002CF4109252011092510109C080339547C6
:1009D00034F080E395E79093520180935101809128
:1009E0005101909152015FDF8EE180934D0181E0D2
:1009F00080934C010895913079F540911501509103
:100A00001601682F64039001659F300D11248091B9
:100A10004F0190915001820F931F9093500180934A
:100A20004F0199232CF41092500110924F0109C0EC
:100A3000883B9B4034F088EB9BE09093500180937F
:100A40004F0180914F019091500164DF8EE18093BE
:100A50004D0181E080934B010895CF93DF93809106
:100A600054018111BBC080915601811109C081E000
:100A7000809356018BB18F7480698BB956DDAEC0FF
:100A8000813021F582E080935601809155018111DA
:100A900003C08BB18F748BB980915501813021F4E3
:100AA0008BB18F7480618BB980915501823021F4B4
:100AB0008BB18F7480628BB980915501833021F4A2
:100AC0008BB18F7480638BB930DD88C0823049F47C
:100AD00083E0809356018BB18F7480688BB925DDDC
:100AE0007DC0833009F07AC08091B40090E0982FE7
:100AF00088272091B200EC01C22B109257018091FF
:100B0000260181111CC08091550181110AC080917C
:100B10005801811106C080914D01811102C0CE01A2
:100B200053DD80915501813051F48091580181113C
:100B300006C080914D01811102C0CE017FDD809100
:100B40005501823011F4CE010EDE809155018330C3
:100B500011F4CE01ADDD90911B019F5F90931B01BD
:100B600089E2989F812D1124869586958695392F47
:100B700022E3829F30191124311104C082E0809356
:100B8000550119C089E2989F812D1124869586957B
:100B9000392F29E1829F30191124311104C083E0DB
:100BA0008093550108C090FD03C01092550103C009
:100BB00081E0809355011092560110925401D4DEC9
:100BC00080914D01882319F0815080934D018091CF
:100BD0001401882319F0815080931401DF91CF9183
:100BE0000895BC0180E090E07AD8089580E090E01C
:100BF00071D80895BC0182E090E071D80895809189
:100C00004D01811111C080914C01882369F08091C0
:100C1000510190915201E5DF6091510170915201B3
:100C200083E652DB10924C0180914D01811111C07D
:100C300080914B01882369F080914F019091500180
:100C4000D9DF60914F017091500187E63DDB109232
:100C50004B01089582E090E03DD808958770677059
:100C600090E1699FB0011124682B7C6C88E090E0D2
:100C700036D808950F931F93CF93DF938C01EB0128
:100C800088E090E027D89C01222721153C4C71F484
:100C9000282F2770F80120838077992792958295D5
:100CA0008F7089279F708927888305C087E0F801A6
:100CB000808381E08883DF91CF911F910F91089508
:100CC0008EE090E007D821E0813A9C4009F020E0D6
:100CD000822F089561EA7CE08EE090E000D80895CC
:100CE000609110017091110180E190E0F8D760915E
:100CF00012017091130182E190E0F1D760910C0133
:100D000070910D0184E190E0EAD760910E0170913D
:100D10000F0186E190E0E3D760910801709109012D
:100D200088E190E0DCD760910A0170910B018AE1C3
:100D300090E0D5D760910401709105018CE190E0BD
:100D4000CED760910601709107018EE190E0C7D780
:100D5000C1DF089580E190E0BDD7909311018093A9
:100D6000100182E190E0B6D79093130180931201B5
:100D700084E190E0AFD790930D0180930C0186E160
:100D800090E0A8D790930F0180930E0188E190E046
:100D9000A1D790930901809308018AE190E09AD746
:100DA00090930B0180930A018CE190E093D790938C
:100DB0000501809304018EE190E08CD790930701A8
:100DC0008093060108950F931F93CF93DF938A01B9
:100DD000C82FD0E02896CC0FDD1FCC0FDD1FCE0131
:100DE0007ED7B801CE0102967AD7DF91CF911F91BD
:100DF0000F910895EF92FF920F931F93CF93DF937C
:100E00007B018A01C82FD0E02896CC0FDD1FCC0FC4
:100E1000DD1FCE015FD7F70191838083CE0102965B
:100E200059D7F80191838083DF91CF911F910F9162
:100E3000FF90EF90089580914E01811125C080911F
:100E40001701909118018A30910529F448E365E073
:100E500084E29AD908958436910529F442E366E044
:100E600084E292D90895883E23E0920729F448E36A
:100E700066E084E289D908958031974241F542E3E2
:100E800067E084E281D9089580911501909116015F
:100E90008130910529F448E362E087E275D908952D
:100EA0008A30910529F442E362E087E26DD9089522
:100EB0008436910529F448E361E087E265D9089515
:100EC000883E934021F442E361E087E25DD90895D2
:100ED0000F931F93CF93DF938C01FC01D491C1E05A
:100EE00006C0F801EC0FF11D849147D9CF5FDC17E4
:100EF000C0F7DF91CF911F910F9108950F93CF937A
:100F0000DF9300D000D0CDB7DEB780914A018111C8
:100F100005C080914801882309F43FC080911401E5
:100F200081113BC0809147018823C9F0809149011C
:100F300087DA80914801882331F1AE014D5F5F4F20
:100F4000BE016F5F7F4F8091490154DF69817A81D3
:100F500083E6BAD96B817C8187E6B6D914C00DE5EA
:100F60002DE54DE56DE58BE62CD980914801882370
:100F700051F02DE54DE56DE583E623D92DE54DE5F1
:100F80006DE587E61ED981E090914701911180E0DF
:100F90008093470183E0809314010F900F900F908E
:100FA0000F90DF91CF910F91089580910001909162
:100FB0000101A0910201B0910301892B8A2B8B2B97
:100FC00071F481ECDAD881E090E0A0E0B0E08093A9
:100FD000000190930101A0930201B093030180915D
:100FE0001C0190911D01A0911E01B0911F018093E1
:100FF000210190932201A0932301B093240108952D
:101000008091200181111AC04B9902C090E001C06B
:1010100093E04A9B02C081E0982780915A01891B86
:10102000282F80FF09C090935A0182709091590136
:10103000890F8150809359012111B7DF08950F93D3
:101040001F93CF93E0915B01F0E0EE5BFF4FE491E3
:101050008CE3E89FC02D1124CC23D1F180910001B5
:1010600090910101A0910201B0910301892B8A2B7B
:101070008B2B71F180911C0190911D01A0911E019B
:10108000B0911F01009121011091220120912301B3
:1010900030912401BC01CD01601B710B820B930BBD
:1010A0002EE533E040E050E09BD58C2F90E0A0E0AF
:1010B000B0E082179307A407B50750F480EC5DD821
:1010C000109200011092010110920201109203018E
:1010D000CF911F910F9108951F920F920FB60F920B
:1010E00011242F933F934F935F936F937F938F932D
:1010F0009F93AF93BF93EF93FF93E4EBF0E0808176
:101100008F5F80838081803370F0809157018111DF
:101110000AC0E1EBF0E080818C7F80831092540163
:101120008BB1806B8BB980911C0190911D01A091B6
:101130001E01B0911F01BC01CD016F5F7F4F8F4F2A
:101140009F4F60931C0170931D0180931E0190932B
:101150001F012EE533E040E050E042D5672B682BBD
:10116000692B09F46CDFFF91EF91BF91AF919F91D3
:101170008F917F916F915F914F913F912F910F9040
:101180000FBE0F901F901895CF93C9B1C170809179
:101190001A01C81779F080915301813059F0C1309C
:1011A00021F48EEB90E094DE03C085EC90E090DEBD
:1011B000C0931A01CF9108958CED90E089DE88E507
:1011C00090E086DE88E490E083DE44E366E083E23C
:1011D000DBD766EC77E083E477D868E070E087E4FB
:1011E00001D90895CF93DF9300D0CDB7DEB788EE55
:1011F00093E09DD780EFC1D7BE016E5F7F4FCE01D8
:10120000019638DD8A81882311F081EC01C080ECE1
:10121000B4D789818852B1D784E690E088D780EB33
:10122000ACD781EAAAD784E690E081D7C5DF88EB06
:101230009BE07DD78EE790E04BDE81ED90E048DECD
:101240000F900F90DF91CF91089510924E01CEDC58
:101250009093520180935101BC0183E635D8FADCAA
:101260009093500180934F01BC0187E62DD881E017
:101270008093530180E090E016DB80E090E04ADB51
:10128000DADD0895EF92FF920F931F93CF93DF93D0
:10129000182F811105C0E0908800F090890004C0EB
:1012A000E0908A00F0908B00C0E0D0E0A9DE80DA08
:1012B000C80FD11D87FDDA95111108C0CE018E0D22
:1012C0009F1D909389008093880007C0CE018E0DEA
:1012D0009F1D90938B0080938A00BE0187E482D883
:1012E0003499E4CF0DE52DE54DE56DE587E469D74B
:1012F0008CE291E01CD7BE0187E474D888EE93E0BD
:1013000016D7CE018E0D9F1DDF91CF911F910F91AA
:10131000FF90EF90089541E363E082E235D788ECD7
:1013200090E005D74EE163E082E22ED788EC90E0B2
:10133000FED63399F0CF8CEC90E0CADD0895CF92C1
:10134000DF92EF92FF920F931F93CF93DF93CDB76E
:10135000DEB766970FB6F894DEBF0FBECDBFB0DC28
:101360008111F8DCADDC882321F086B1857009F0AD
:10137000FFC080EF02D748E361E284E005D741E394
:1013800065E087E201D784E690E0C4DA64E670E0C5
:1013900087E69AD788E893E19C8B8B8B88EA91E665
:1013A0009E8B8D8B8CE291E0988B8F878CED95E0F6
:1013B0009A8B898B1A8219821C821B8210E03CC096
:1013C00081ED90E085DD44E365E083E2DDD6E12E4A
:1013D000F12CEE0CFF1C81E090E08C0F9D1FE80EBD
:1013E000F91EF701C288D388C6015DDA61E5610F95
:1013F0000CE52AE54BE583E4E4D6B60183E664D741
:101400000DE52DE54DE56DE587E4DBD684DF85EC64
:1014100090E05EDD48E362E087E2B6D688EC90E0DB
:1014200086D680E02FDFF7019183808380E0C9D9E1
:10143000F701938782871F5F123010F28B819C81A6
:1014400029813A81821B930B90931301809312019F
:101450009695879596958795281B390B30931101A2
:10146000209310018D859E852B853C85821B930BD7
:1014700090930B0180930A01969587959695879591
:10148000281B390B309309012093080180EE9EE25E
:101490000ADA80EB72D660EE7EE283E615D710E0C2
:1014A0003CC081ED90E014DD49E165E083E26CD65B
:1014B00041E363E087E268D6E12EF12CEE0CFF1CDD
:1014C00081E090E08C0F9D1FE80EF91EF701C684A5
:1014D000D784C6011FDA63E5610F0CE52AE54BE509
:1014E00083E46FD6B60187E6EFD60DE52DE54DE531
:1014F0006DE587E466D60FDF8EEB90E0E9DC88ECE3
:1015000090E015D681E0BEDEF7019183808381E013
:1015100058D9F701978386831F5F123010F28B81B1
:101520009C8129813A81821B930B90930F018093B8
:101530000E019695879596958795281B390B3093C4
:101540000D0120930C0189859A852F813885821B96
:10155000930B909307018093060196958795969536
:101560008795281B390B3093050120930401B8DBC4
:101570008EE790E0ADDC81ED90E0AADC66960FB6D8
:10158000F894DEBF0FBECDBFDF91CF911F910F91B9
:10159000FF90EF90DF90CF9008950F93CF93C82FD7
:1015A0000CE520E54DE56DE583E40BD66C2F70E08E
:1015B0006F5F7F4F87E416D7CF910F9108950F93F8
:1015C000CF93C82F01E52BE54BE56DE583E4F9D515
:1015D000EC2FF0E0EE5BFF4F649170E087E402D700
:1015E000CF910F910895E82F80912001882399F0E1
:1015F000E11111C09091530191110DC081ED90E066
:1016000067DC80E090E04FD980E090E083D981E012
:1016100080935301089590912601992329F1E33095
:1016200091F0E63009F047C160915B0180915C0167
:1016300015DB8BE690E04CDC8CED90E049DCFBDBCD
:1016400010922601089581E090912501911180E08A
:1016500080932501811104C080915C019EDF089573
:1016600080915B01ACDF0895811125C18E2F90E040
:101670008730910508F01FC1FC01E65EFF4F099419
:101680008091530181110DC081ED90E021DC80E05B
:1016900090E009D980E090E03DD981E0809353014A
:1016A00008958091510190915201FDD880914F0190
:1016B000909150012FD98CEC90E00ADC85EC90E001
:1016C00007DC10925301089580914E01811118C0DA
:1016D0008091170190911801803127E2920738F527
:1016E0009C01220F331F880F991F880F991F880FA5
:1016F000991F820F931F909318018093170117C0B1
:101700008091150190911601883E23E0920778F4AC
:101710009C01220F331F880F991F880F991F880F74
:10172000991F820F931F90931601809315018CEDE2
:1017300090E0CEDB80DB089580914E01811115C0D1
:1017400020911701309118012B30310510F1ADECCB
:10175000BCEC8AD2969587959695879596958795B0
:10176000909318018093170114C0209115013091B6
:1017700016012230310568F0ADECBCEC75D29695BF
:101780008795969587959695879590931601809362
:1017900015018CED90E09CDB4EDB08958CED90E024
:1017A00097DB81E090914E01911180E080934E0192
:1017B00042DB08958091480181110EC048E363E047
:1017C00087E2E2D4809149013BD681E080934801D1
:1017D00085E08093140111C085EB90E079DB609186
:1017E00051017091520183E66FD560914F01709164
:1017F000500187E669D51092480110924A01089578
:1018000080914A0181110EC048E363E087E2BCD4B5
:101810008091490115D681E080934A0185E080934B
:10182000140105C085EB90E053DB10924A01109241
:101830004801089580914801811104C090914A01A6
:101840009923C9F1882329F14FE451E061E571E062
:1018500080914901CFDA809151019091520123D8B2
:1018600080914F019091500155D860915101709134
:10187000520183E629D560914F017091500187E6AE
:1018800023D510924D0181E080934C0180934B0150
:101890000BC040914F0150915001609151017091E6
:1018A0005201809149018FDA85EB90E011DB1092B3
:1018B0004A011092480108950F931F93CF93DF932D
:1018C000C82FD0E0FE01EE0FFF1FEE0FFF1FE95DF6
:1018D000FE4F0081118122813381101611061206FC
:1018E000130694F440911C0150911D0160911E015A
:1018F00070911F01401B510B620B730B4B30510554
:101900006105710508F06FDECC0FDD1FCC0FDD1F08
:10191000C95DDE4F188219821A821B82DF91CF9136
:101920001F910F91089588E590E0D2DA8CED90E058
:10193000CFDA88E490E0CCDA48E362E087E224D4AE
:101940006BE571E08CE591E095D980915C0125DE35
:101950001092250181E0809326010895CF93C82F2E
:10196000833029F480912601811101C0DCDFC15050
:10197000C23060F580912B0190912C01A0912D0136
:10198000B0912E018F3F9F4FAF4FBF4FF9F4809121
:101990002F0190913001A0913101B09132018F3F20
:1019A0009F4FAF4FBF4F91F480912001882339F0B2
:1019B0004EE162E082E2E8D31092200107C041E3E9
:1019C00062E082E2E1D381E080932001CF9108952B
:1019D000CF92DF92EF92FF92282F30E0F901EE0FC5
:1019E000FF1FEE0FFF1FE95DFE4F408151816281B5
:1019F0007381452B462B472B99F4F901EE0FFF1FFE
:101A0000EE0FFF1FE95DFE4F40911C0150911D013B
:101A100060911E0170911F01408351836283738323
:101A2000F901EE0FFF1FEE0FFF1FE95DFE4FC080B3
:101A3000D180E280F3809FEFC916D906E906F90646
:101A400001F140911C0150911D0160911E017091A6
:101A50001F014C195D096E097F09493B5B40610517
:101A6000710578F0220F331F220F331FF901E95D52
:101A7000FE4F4FEF5FEFBA01408351836283738360
:101A80006DDF93DAFF90EF90DF90CF900895CF93C2
:101A9000C6B1C3FD03C080E09BDF02C080E00CDF65
:101AA000C0FD03C081E094DF02C081E005DFC2FD1C
:101AB00003C082E08DDF02C082E0FEDEC1FD03C014
:101AC00083E086DF02C083E0F7DE499903C084E04B
:101AD0007FDF02C084E0F0DEC5FD03C085E078DF73
:101AE00002C085E0E9DEC4FD03C086E071DF02C00C
:101AF00086E0E2DECF9108955BD6082E000C990BAC
:101B000020912501211122C0181619067CF420917C
:101B10005C01273058F481E0820F80935C0189EDED
:101B2000820F2BD380915C0138DD0895992374F5E1
:101B300080915C01882351F19FEF980F90935C0195
:101B400089521BD380915C0128DD0895181619066F
:101B50006CF420915B01253048F42F5F20935B01EA
:101B600081EC0BD380915B012ADD0895992374F4F5
:101B700080915B01882351F0815080935B0181113A
:101B800002C080ECFAD280915B0119DD0895E2D2A7
:101B90004CD3C2D42BD3BAD4FDD524DBABD4CFDB0A
:101BA00054DB2DD8F1DA2CDA72DFA8D956D7809120
:101BB00026018823B1F3A0DFF4CF97FB072E16F49C
:101BC000009406D077FD08D071D007FC05D03EF414
:101BD000909581959F4F0895709561957F4F0895D9
:101BE000A1E21A2EAA1BBB1BFD010DC0AA1FBB1F21
:101BF000EE1FFF1FA217B307E407F50720F0A21B93
:101C0000B30BE40BF50B661F771F881F991F1A94FF
:101C100069F760957095809590959B01AC01BD0129
:101C2000CF010895052E97FB16F400940FD057FDB1
:101C300005D0D6DF07FC02D046F408C05095409589
:101C4000309521953F4F4F4F5F4F08959095809568
:101C5000709561957F4F8F4F9F4F089505D0332327
:101C600012F48A1B9B0B0DC0A29FB001B39FC00151
:101C7000A39F01D0B29F700D811D1124911D089565
:101C8000F3DFB7FF0895821B930B0895EDDFA59F47
:101C9000900DB49F900DA49F800D911D1124089567
:101CA000B7FFF4CFF3DF821B930B0895AA1BBB1B76
:101CB00051E107C0AA1FBB1FA617B70710F0A61B4C
:101CC000B70B881F991F5A95A9F780959095BC016D
:101CD000CD010895A8E1B0E042E050E005C012D087
:101CE000272F11C0DC01CB01FC01F999FECF06C002
:101CF000F2BDE1BDF89A319600B40D9241505040CA
:101D0000B8F70895262FF999FECF1FBA92BD81BD6D
:101D100020BD0FB6F894FA9AF99A0FBE019608956D
:041D2000F894FFCF65
:101D2400010000000B018013A300F91A76007E164F
:0A1D34007B002627056400E8030089
:00000001FF
