:100000007AC094C093C0B2C291C090C08FC08EC05D
:100010008DC05EC88BC08AC089C088C087C086C0BA
:1000200085C084C083C082C081C080C07FC07EC0C4
:100030007DC07CC008CB2BCB62CB93CB9ECBC3CBFC
:10004000DCCB0001050A1E3C0F435D5D5D5D475D35
:100050005D5D5D4B5D5D5D5D0F23051927031E230F
:10006000031E23061B27011923021E0F2305342715
:10007000033123033123063427013423023136238D
:1000800005342306342703312701342303312302A7
:100090003100233804203804213804273423053163
:1000A000270531240638435D50505047505050507A
:1000B0004B50505050082703156B5D5D5D5D062762
:1000C000033220051D0620053227031D04A022034C
:1000D0001E0AA122033120051D27031D1824071D18
:1000E00024061524061D24051527011D27011527A3
:1000F000021D2702150011241FBECFEFD4E0DEBF82
:10010000CDBF11E0A0E0B1E0E2E8FCE102C0059063
:100110000D92AA31B107D9F721E0AAE1B1E001C0FF
:100120001D92AC35B207E1F7E1DCA9CD69CF40E023
:1001300050E00CC000002F5F3F4F02C020E030E0D5
:10014000203263E03607B0F34F5F5F4F481759071F
:10015000A8F3089584B18C6284B984B18F7E84B988
:1001600085B1806185B98CB580618CBD8CB58D60A1
:100170008CBD8CB580648CBD08958EBD0DB407FE1A
:10018000FDCF1C99FECF0895CF93DF93D62FC42FB8
:10019000F4DF8D2FF2DF8C2FF0DFDF91CF91089508
:1001A0001F93CF93DF93162FD42FC22FE6DF812F1B
:1001B000E4DF8D2FE2DF8C2FE0DFDF91CF911F9105
:1001C00008950F931F93CF93DF93162FD42FC22F31
:1001D000D4DF812FD2DF8D2FD0DF8C2FCEDF802F89
:1001E000CCDFDF91CF911F910F9108958FEF9FE3A7
:1001F0009093870080938600109289001092880067
:1002000010928B0010928A00E0E8F0E08081806A12
:100210008083808182608083E1E8F0E08081886172
:10022000808380818160808308958AB1806B8AB9E0
:1002300084B1826084B984B1846084B98AB18064F5
:100240008AB984B18E7F84B987B18F7D87B987B130
:100250008F7E87B987B18D7F87B987B18E7F87B948
:1002600087B18B7F87B987B1877F87B98AB18D7F47
:100270008AB98AB18E7F8AB98AB1877F8AB98AB1F1
:100280008B7F8AB985B1816085B988B1806288B970
:1002900088B1806188B988B1826088B988B181608D
:1002A00088B988B1846088B988B1886088B98BB111
:1002B00082608BB98BB181608BB98BB188608BB94F
:1002C0008BB184608BB90895FF920F931F93CF93E6
:1002D000DF93182FFB01833411F0833669F49F01FB
:1002E000ADECBCEC70DCFC01F695E795F695E79576
:1002F000F695E79541E001C040E09F0136952795CE
:100300003695279536952795A5ECB0E25CDC92955D
:1003100082958F7089279F708927805B082F4111F4
:1003200002C01B3419F4803509F40DE59F013695A0
:1003300027953695279536952795A5ECB0E243DCB1
:10034000AC01529542954F7045275F70452728EEC6
:1003500033E0429FC001439F900D529F900D1124A6
:10036000AF01481B590BEA01D695C795D695C7959D
:100370009E01ABE7B4E127DCFC01F695E7950F2E73
:10038000F0E5FF2EF02DFE0E24E62E9FC0012F9FDC
:10039000900D1124FA01E81BF90B9F01ADECBCECA8
:1003A00012DCEC01D695C795D695C795D695C7951D
:1003B0004C2F405BCE01880F991FCC0FDD1FCC0F57
:1003C000DD1FCC0FDD1FC80FD91FEC1BFD0B60E537
:1003D0006E0F2F2D812FF5DEDF91CF911F910F91A1
:1003E000FF9008950F93382FCB0199232CF491950A
:1003F000819591090FE501C00DE568EE73E08CDB96
:10040000FC0164E670E088DB20E5260F203509F466
:100410002DE5CF0164E670E07FDBFC016AE070E06F
:100420007BDB40E5460F403509F44DE5CF016AE03E
:1004300070E072DB60E5680F832FC3DE0F910895D3
:100440000F939DEC899F912D1124969596959695E5
:1004500000E5090F990F292F220F220F920F891BF8
:1004600020E5280F4DE56DE58BE6ABDE0F91089595
:100470000F931F93AC019C013695279536952795D0
:10048000ABE7B4E1A0DBFC01F695E7959A01369560
:1004900027953695279536952795A5ECB0E293DB01
:1004A0008C01129502950F7001271F7001279F0183
:1004B000ADECBCEC88DB96958795969587959695DF
:1004C00087959C01220F331F880F991F880F991F52
:1004D000880F991F820F931F9F01281B390BC90199
:1004E000005B20E5280F4DE56DE58BE66ADE1F9188
:1004F0000F910895E8E6F0E0808181608083EBE66B
:10050000F0E080818160808378940895E1EBF0E0F1
:10051000808183608083089585B5836085BD84B5BF
:10052000836884BD8FE787BD08951092B4008AE088
:100530008093B20081E090915501933009F080E002
:1005400080935601E0E7F0E080818160808387B38B
:10055000816087BB8BB381608BBBE1EBF0E0808176
:100560008360808381E08093530108951F920F92EE
:100570000FB60F9211248F93EF93FF9318990AC02F
:10058000E1EBF0E080818C7F8083109253018BB18E
:10059000806B8BB9FF91EF918F910F900FBE0F90F1
:1005A0001F9018952091440130914501A09142017E
:1005B000B091430102DB20E137E240E050E0BFDAD6
:1005C000B9018BE481DE089520915201213039F088
:1005D00060910801709109016817790768F060E07F
:1005E00070E083E471DE60E070E08BE46DDE109219
:1005F0004501109244010895A0E0B0E09C01AD01D6
:10060000261B370B41095109A0E2BEE4EEDA209126
:100610000A0130910B01A90156954795640F751F8A
:10062000811D911D40E050E0ACDA309345012093EC
:100630004401B90183E448DEB5DF089520915201F9
:10064000213039F060910401709105016817790734
:1006500068F060E070E087E437DE60E070E08BE433
:1006600033DE10924301109242010895A0E0B0E001
:100670009C01AD01261B370B41095109A0EBB4E0E9
:10068000B4DA2091060130910701A90156954795EA
:10069000640F751F811D911D40E050E072DA3093A8
:1006A000430120934201B90187E40EDE7BDF089508
:1006B000CF92DF92EF92FF92DC0120E030E043E046
:1006C00050E093DA6B017C0120E5E21A26E4F20A9D
:1006D0006701EE24FF2480914901811106C08091B9
:1006E0004701811102C0C601C3DE960136952795E8
:1006F00036952795ABE7B4E166DA7C01F694E7948A
:100700008BE4E816F10448F021E343E062E281EA79
:1007100047DD81E08093520121C026E4E216F10416
:1007200038F044E361E082E22FDD8FEF87BD16C031
:1007300085E4E816F10490F441E161E082E224DD11
:1007400024E2E216F10418F484E187BD07C08FE1CA
:10075000E81A80ECF80AEE0CEE0CE7BCFF90EF9084
:10076000DF90CF900895DC0120E030E043E050E0DE
:100770003CDADC01CB01A055B644CD01AA27BB274A
:1007800020914901211105C020914701211101C08B
:100790006FDE08954B9902C080E001C083E04A9B60
:1007A00002C091E089278093590110925801089561
:1007B00080915801982F9370909358018595859555
:1007C0000895FF920F931F93CF93DF93F82E10E0BD
:1007D00000E0C0E0D0E033C08BB18F7480698BB98A
:1007E000A4DE809153018111FCCF8BB18F74F11085
:1007F00002C090E001C090E1892B8BB996DE809118
:1008000053018111FCCF8BB18F7480688BB98DDE61
:10081000809153018111FCCF8091B40090E0982F1A
:1008200088272091B200822B9C01C217D30721F4A4
:100830000F5F053011F406C000E01F5FEC011233BA
:1008400058F201C0E901CE01DF91CF911F910F91C4
:10085000FF900895ADDF082E000C990B009719F456
:1008600010925701089521E0209357011816190698
:1008700044F4209148012F3020F42F5F2093480149
:1008800009C099233CF480914801882319F08150D4
:100890008093480180914801D3DD1092460183E0A6
:1008A000809314010895CF93DF93EC0160911201BE
:1008B00070911301CB01A0E0B0E0DC0199278827FB
:1008C000BC01CD01605F784D8F4F9F4F20E23EE429
:1008D00040E050E034D9DE0192D9209110013091EE
:1008E0001101820F931F9093890080938800C8396B
:1008F0008AE3D8071CF081EB40DC06C0C53A88E3E8
:10090000D80714F480EB39DCBE0183E4DDDCDF9131
:10091000CF910895CF93DF93EC0160910E01709118
:100920000F01CB01A0E0B0E0DC0199278827BC01D2
:10093000CD01685A7D4F8F4F9F4F20EB34E040E050
:1009400050E0FDD8DE015BD920910C0130910D0102
:10095000820F931F90938B0080938A00BE0187E4DF
:10096000B3DCDF91CF91089580914901811104C0DA
:1009700080914701882311F06DDF089519DF8111FF
:1009800003C010925701089591E090935701909100
:100990004D01911130C04091170150911801682FFD
:1009A00064039001659F300D112480915001909156
:1009B0005101820F931F909351018093500199230D
:1009C0002CF4109251011092500109C080339547C8
:1009D00034F080E395E7909351018093500180912A
:1009E0005001909151015FDF8EE180934C0181E0D5
:1009F00080934B010895913079F540911501509104
:100A00001601682F64039001659F300D11248091B9
:100A10004E0190914F01820F931F90934F0180934D
:100A20004E0199232CF410924F0110924E0109C0EF
:100A3000883B9B4034F088EB9BE090934F01809380
:100A40004E0180914E0190914F0164DF8EE18093C1
:100A50004C0181E080934A010895CF93DF93809108
:100A600053018111BBC080915501811109C081E002
:100A7000809355018BB18F7480698BB956DDAEC000
:100A8000813021F582E080935501809154018111DC
:100A900003C08BB18F748BB980915401813021F4E4
:100AA0008BB18F7480618BB980915401823021F4B5
:100AB0008BB18F7480628BB980915401833021F4A3
:100AC0008BB18F7480638BB930DD88C0823049F47C
:100AD00083E0809355018BB18F7480688BB925DDDD
:100AE0007DC0833009F07AC08091B40090E0982FE7
:100AF00088272091B200EC01C22B10925601809100
:100B0000250181111CC08091540181110AC080917E
:100B10005701811106C080914C01811102C0CE01A4
:100B200053DD80915401813051F48091570181113E
:100B300006C080914C01811102C0CE017FDD809101
:100B40005401823011F4CE010EDE809154018330C5
:100B500011F4CE01ADDD90911B019F5F90931B01BD
:100B600089E2989F812D1124869586958695392F47
:100B700022E3829F30191124311104C082E0809356
:100B8000540119C089E2989F812D1124869586957C
:100B9000392F29E1829F30191124311104C083E0DB
:100BA0008093540108C090FD03C01092540103C00B
:100BB00081E0809354011092550110925301D4DECC
:100BC00080914C01882319F0815080934C018091D1
:100BD0001401882319F0815080931401DF91CF9183
:100BE0000895BC0180E090E029D8089580E090E06D
:100BF00020D80895BC0182E090E020D8089580912B
:100C00004C01811111C080914B01882369F08091C2
:100C1000500190915101E5DF6091500170915101B7
:100C200083E652DB10924B0180914C01811111C07F
:100C300080914A01882369F080914E0190914F0183
:100C4000D9DF60914E0170914F0187E63DDB109234
:100C50004A01089582E090E0ECD7089587706770AC
:100C600090E1699FB0011124682B7C6C88E090E0D2
:100C7000E5D708950F931F93CF93DF938C01EB017A
:100C800088E090E0D6D79C01222721153C4C71F4D6
:100C9000282F2770F80120838077992792958295D5
:100CA0008F7089279F708927888305C087E0F801A6
:100CB000808381E08883DF91CF911F910F91089508
:100CC0008EE090E0B6D721E0813A9C4009F020E028
:100CD000822F089561EA7CE08EE090E0AFD708951E
:100CE000609110017091110180E190E0A7D76091AF
:100CF00012017091130182E190E0A0D760910C0184
:100D000070910D0184E190E099D760910E0170918E
:100D10000F0186E190E092D760910801709109017E
:100D200088E190E08BD760910A0170910B018AE114
:100D300090E084D760910401709105018CE190E00E
:100D40007DD760910601709107018EE190E076D722
:100D5000C1DF089580E190E06CD7909311018093FA
:100D6000100182E190E065D7909313018093120106
:100D700084E190E05ED790930D0180930C0186E1B1
:100D800090E057D790930F0180930E0188E190E097
:100D900050D790930901809308018AE190E049D7E8
:100DA00090930B0180930A018CE190E042D79093DD
:100DB0000501809304018EE190E03BD790930701F9
:100DC0008093060108950F931F93CF93DF938A01B9
:100DD000C82FD0E02896CC0FDD1FCC0FDD1FCE0131
:100DE0002DD7B801CE01029629D7DF91CF911F915F
:100DF0000F910895EF92FF920F931F93CF93DF937C
:100E00007B018A01C82FD0E02896CC0FDD1FCC0FC4
:100E1000DD1FCE010ED7F70191838083CE010296AC
:100E200008D7F80191838083DF91CF911F910F91B3
:100E3000FF90EF90089580914D01811125C0809120
:100E40001701909118018A30910529F448E365E073
:100E500084E29AD908958436910529F442E366E044
:100E600084E292D90895883E23E0920729F448E36A
:100E700066E084E289D908958031974241F542E3E2
:100E800067E084E281D9089580911501909116015F
:100E90008130910529F448E362E087E275D908952D
:100EA0008A30910529F442E362E087E26DD9089522
:100EB0008436910529F448E361E087E265D9089515
:100EC000883E934021F442E361E087E25DD90895D2
:100ED0000F931F93CF93DF938C01FC01D491C1E05A
:100EE00006C0F801EC0FF11D849147D9CF5FDC17E4
:100EF000C0F7DF91CF911F910F9108950F93CF937A
:100F0000DF9300D000D0CDB7DEB7809149018111C9
:100F100005C080914701882309F43FC080911401E6
:100F200081113BC0809146018823C9F0809148011E
:100F300087DA80914701882331F1AE014D5F5F4F21
:100F4000BE016F5F7F4F8091480154DF69817A81D4
:100F500083E6BAD96B817C8187E6B6D914C00DE5EA
:100F60002DE54DE56DE58BE62CD980914701882371
:100F700051F02DE54DE56DE583E623D92DE54DE5F1
:100F80006DE587E61ED981E090914601911180E0E0
:100F90008093460183E0809314010F900F900F908F
:100FA0000F90DF91CF910F91089580910001909162
:100FB0000101A0910201B0910301892B8A2B8B2B97
:100FC00071F481ECDAD881E090E0A0E0B0E08093A9
:100FD000000190930101A0930201B093030180915D
:100FE0001C0190911D01A0911E01B0911F018093E1
:100FF000200190932101A0932201B0932301089531
:101000004B9902C090E001C093E04A9B02C081E08E
:10101000982780915901891B282F80FF09C0909340
:101020005901827090915801890F81508093580125
:101030002111BBDF08950F931F93CF93E0915A01C5
:10104000F0E0EE5BFF4FE4918CE3E89FC02D1124AC
:10105000CC23D1F18091000190910101A091020176
:10106000B0910301892B8A2B8B2B71F180911C018C
:1010700090911D01A0911E01B0911F0100912001CE
:10108000109121012091220130912301BC01CD0159
:10109000601B710B820B930B2EE533E040E050E0B8
:1010A0004ED58C2F90E0A0E0B0E082179307A40704
:1010B000B50750F480EC61D8109200011092010144
:1010C0001092020110920301CF911F910F91089588
:1010D0001F920F920FB60F9211242F933F934F93AD
:1010E0005F936F937F938F939F93AF93BF93EF9390
:1010F000FF93E4EBF0E080818F5F80838081803319
:1011000070F08091560181110AC0E1EBF0E080811E
:101110008C7F8083109253018BB1806B8BB980914F
:101120001C0190911D01A0911E01B0911F01BC01F5
:10113000CD016F5F7F4F8F4F9F4F60931C01709366
:101140001D0180931E0190931F012EE533E040E0C6
:1011500050E0F5D4672B682B692B09F46CDFFF9105
:10116000EF91BF91AF919F918F917F916F915F911F
:101170004F913F912F910F900FBE0F901F90189598
:10118000CF93C9B1C17080911A01C81779F08091CD
:101190005201813059F0C13021F48EEB90E098DE9D
:1011A00003C085EC90E094DEC0931A01CF910895BE
:1011B0008CED90E08DDE88E590E08ADE88E490E0BA
:1011C00087DE44E366E083E2DFD766EC77E083E422
:1011D0007BD867E070E087E477D80895CF93DF93FA
:1011E00000D0CDB7DEB788EE93E0A1D780EFC5D7AA
:1011F000BE016E5F7F4FCE0101963CDD8A81882360
:1012000011F081EC01C080ECB8D789818852B5D744
:1012100084E690E08CD780EBB0D781EAAED784E645
:1012200090E085D7C5DF88EB9BE081D78EE790E023
:101230004FDE81ED90E04CDE0F900F90DF91CF916B
:10124000089510924D01D2DC90935101809350018A
:10125000BC0183E639D8FEDC90934F0180934E01A8
:10126000BC0187E631D881E08093520180E090E0B4
:101270001ADB80E090E04EDBDEDD0895EF92FF9216
:101280000F931F93CF93DF93182F811105C0E09028
:101290008800F090890004C0E0908A00F0908B00F4
:1012A000C0E0D0E0ADDE84DAC80FD11D87FDDA954D
:1012B000111108C0CE018E0D9F1D9093890080935F
:1012C000880007C0CE018E0D9F1D90938B008093E8
:1012D0008A00BE0187E486D83499E4CF0DE52DE578
:1012E0004DE56DE587E46DD78CE291E020D7BE0136
:1012F00087E478D888EE93E01AD7CE018E0D9F1D33
:10130000DF91CF911F910F91FF90EF90089541E3EE
:1013100063E082E239D788EC90E009D74EE163E0E0
:1013200082E232D788EC90E002D73399F0CF8CEC90
:1013300090E0CEDD0895CF92DF92EF92FF920F936F
:101340001F93CF93DF93CDB7DEB766970FB6F894B0
:10135000DEBF0FBECDBFB4DC8111FCDCB1DC882365
:1013600021F086B1857009F0FFC080EF06D748E311
:1013700061E284E009D741E365E087E205D784E6CE
:1013800090E0C8DA64E670E087E69ED788E893E1EB
:101390009C8B8B8B88EA91E69E8B8D8B8CE291E007
:1013A000988B8F878CED95E09A8B898B1A821982A6
:1013B0001C821B8210E03CC081ED90E089DD44E39B
:1013C00065E083E2E1D6E12EF12CEE0CFF1C81E01A
:1013D00090E08C0F9D1FE80EF91EF701C288D3889C
:1013E000C60161DA61E5610F0CE52AE54BE583E4AE
:1013F000E8D6B60183E668D70DE52DE54DE56DE548
:1014000087E4DFD684DF85EC90E062DD48E362E0CC
:1014100087E2BAD688EC90E08AD680E02FDFF70129
:101420009183808380E0CDD9F701938782871F5F06
:10143000123010F28B819C8129813A81821B930B9F
:1014400090931301809312019695879596958795B1
:10145000281B390B30931101209310018D859E8537
:101460002B853C85821B930B90930B0180930A0183
:101470009695879596958795281B390B309309018A
:101480002093080180EE9EE20EDA80EB76D660EEC5
:101490007EE283E619D710E03CC081ED90E018DDD4
:1014A00049E165E083E270D641E363E087E26CD610
:1014B000E12EF12CEE0CFF1C81E090E08C0F9D1FC3
:1014C000E80EF91EF701C684D784C60123DA63E566
:1014D000610F0CE52AE54BE583E473D6B60187E698
:1014E000F3D60DE52DE54DE56DE587E46AD60FDF12
:1014F0008EEB90E0EDDC88EC90E019D681E0BEDE6A
:10150000F7019183808381E05CD9F701978386831B
:101510001F5F123010F28B819C8129813A81821BDE
:10152000930B90930F0180930E0196958795969556
:101530008795281B390B30930D0120930C01898569
:101540009A852F813885821B930B90930701809396
:1015500006019695879596958795281B390B3093AC
:10156000050120930401BCDB8EE790E0B1DC81ED46
:1015700090E0AEDC66960FB6F894DEBF0FBECDBF2E
:10158000DF91CF911F910F91FF90EF90DF90CF905F
:1015900008950F93CF93C82F0CE520E54DE56DE539
:1015A00083E40FD66C2F70E06F5F7F4F87E41AD70C
:1015B000CF910F9108950F93CF93C82F01E52BE59D
:1015C0004BE56DE583E4FDD5EC2FF0E0EE5BFF4FDE
:1015D000649170E087E406D7CF910F910895E82FCA
:1015E00080912501882329F1E33091F0E63009F05C
:1015F00045C160915A0180915B0130DB8BE690E040
:1016000067DC8CED90E064DC16DC10922501089517
:1016100081E090912401911180E080932401811157
:1016200004C080915B01B5DF089580915A01C3DF4A
:1016300008958E2F90E08730910508F01FC1FC01BE
:10164000E65EFF4F09948091520181110DC081ED3A
:1016500090E03EDC80E090E026D980E090E05AD92E
:1016600081E0809352010895809150019091510141
:101670001AD980914E0190914F014CD98CEC90E099
:1016800027DC85EC90E024DC1092520108958091D3
:101690004D01811118C0809117019091180180317E
:1016A00027E2920738F59C01220F331F880F991FFC
:1016B000880F991F880F991F820F931F909318010D
:1016C0008093170117C08091150190911601883EF3
:1016D00023E0920778F49C01220F331F880F991F93
:1016E000880F991F880F991F820F931F90931601DF
:1016F000809315018CED90E0EBDB9DDB08958091EC
:101700004D01811115C020911701309118012B3026
:10171000310510F1ADECBCEC56D2969587959695B7
:10172000879596958795909318018093170114C01B
:1017300020911501309116012230310568F0ADEC91
:10174000BCEC41D296958795969587959695879509
:1017500090931601809315018CED90E0B9DB6BDB63
:1017600008958CED90E0B4DB81E090914D019111F2
:1017700080E080934D015FDB0895809147018111E6
:101780000EC048E363E087E2FFD48091480158D659
:1017900081E08093470185E08093140111C085EBBF
:1017A00090E096DB609150017091510183E68CD5F9
:1017B00060914E0170914F0187E686D510924701E6
:1017C0001092490108958091490181110EC048E3AA
:1017D00063E087E2D9D48091480132D681E08093DA
:1017E000490185E08093140105C085EB90E070DB32
:1017F000109249011092470108958091470181118B
:1018000004C0909149019923C9F1882329F14EE43C
:1018100051E060E571E080914801ECDA809150017F
:101820009091510140D880914E0190914F0172D812
:10183000609150017091510183E646D560914E014F
:1018400070914F0187E640D510924C0181E0809362
:101850004B0180934A010BC040914E0150914F01C2
:10186000609150017091510180914801ACDA85EB93
:1018700090E02EDB109249011092470108950F93DA
:101880001F93CF93DF93C82FD0E0FE01EE0FFF1F11
:10189000EE0FFF1FEA5DFE4F00811181228133812F
:1018A0000115110521053105B1F040911C01509140
:1018B0001D0160911E0170911F01401B510B620BB5
:1018C000730B4B50510961097109453C5740610543
:1018D000710508F484DECC0FDD1FCC0FDD1FCA5D5F
:1018E000DE4F188219821A821B82DF91CF911F91DD
:1018F0000F91089588E590E0EBDA8CED90E0E8DA5E
:1019000088E490E0E5DA48E362E087E23DD46AE506
:1019100071E08BE591E0AED980915B013ADE1092E7
:10192000240181E0809325010895833009F4E2DFEA
:101930000895CF92DF92EF92FF920F931F93CF9370
:10194000DF93C82FD0E0FE01EE0FFF1FEE0FFF1F49
:10195000EA5DFE4F408151816281738141155105DD
:101960006105710569F480911C0190911D01A091A0
:101970001E01B0911F0180839183A283B3832CC089
:1019800000911C0110911D0120911E0130911F0139
:1019900068017901C41AD50AE60AF70A99EBC91653
:1019A0009BE0D906E104F104B8F0BFDF80911C018F
:1019B00090911D01A0911E01B0911F01805D974083
:1019C000A109B109CC0FDD1FCC0FDD1FCA5DDE4FB1
:1019D00088839983AA83BB83E8DADF91CF911F9133
:1019E0000F91FF90EF90DF90CF900895CF93C6B105
:1019F000C3FD03C080E09DDF02C080E040DFC0FD8A
:101A000003C081E096DF02C081E039DFC2FD03C080
:101A100082E08FDF02C082E032DFC1FD03C083E0DD
:101A200088DF02C083E02BDF499903C084E081DFB7
:101A300002C084E024DFC5FD03C085E07ADF02C078
:101A400085E01DDFC4FD03C086E073DF02C086E0D1
:101A500016DFCF910895ACD6082E000C990B20917B
:101A60002401211122C0181619067CF420915B0173
:101A7000273058F481E0820F80935B0189ED820F5B
:101A80007CD380915B0185DD0895992374F5809165
:101A90005B01882351F19FEF980F90935B0189526E
:101AA0006CD380915B0175DD0895181619066CF4EE
:101AB00020915A01253048F42F5F20935A0181EC80
:101AC0005CD380915A0177DD0895992374F4809155
:101AD0005A01882351F0815080935A01811102C02C
:101AE00080EC4BD380915A0166DD089533D39DD3AA
:101AF00013D57CD30BD54ED671DBFCD41CDCA1DB1B
:101B00007ED83EDB7DDA72DFF9D9A7D78091250137
:101B10008823B1F3A0DFF4CF97FB072E16F40094CF
:101B200006D077FD08D071D007FC05D03EF4909523
:101B300081959F4F0895709561957F4F0895A1E21B
:101B40001A2EAA1BBB1BFD010DC0AA1FBB1FEE1F37
:101B5000FF1FA217B307E407F50720F0A21BB30B82
:101B6000E40BF50B661F771F881F991F1A9469F7FE
:101B700060957095809590959B01AC01BD01CF015A
:101B80000895052E97FB16F400940FD057FD05D04D
:101B9000D6DF07FC02D046F408C05095409530953A
:101BA00021953F4F4F4F5F4F0895909580957095C9
:101BB00061957F4F8F4F9F4F089505D0332312F4C7
:101BC0008A1B9B0B0DC0A29FB001B39FC001A39FB6
:101BD00001D0B29F700D811D1124911D0895F3DF76
:101BE000B7FF0895821B930B0895EDDFA59F900D1D
:101BF000B49F900DA49F800D911D11240895B7FFEF
:101C0000F4CFF3DF821B930B0895AA1BBB1B51E19A
:101C100007C0AA1FBB1FA617B70710F0A61BB70B5C
:101C2000881F991F5A95A9F780959095BC01CD0101
:101C30000895A8E1B0E042E050E005C012D0272F9F
:101C400011C0DC01CB01FC01F999FECF06C0F2BD49
:101C5000E1BDF89A319600B40D9241505040B8F76A
:101C60000895262FF999FECF1FBA92BD81BD20BDE0
:101C70000FB6F894FA9AF99A0FBE01960895F8945F
:021C8000FFCF94
:101C8200010000000B018013A300F91A76007E16F2
:0A1C92007B002627056400E803002C
:00000001FF
